{
	"BCS/230508_01_Struct_Practice.sol": {
		"structPractice": {
			"abi": [
				{
					"inputs": [],
					"name": "getC",
					"outputs": [
						{
							"components": [
								{
									"internalType": "string",
									"name": "subject",
									"type": "string"
								},
								{
									"internalType": "uint256",
									"name": "number",
									"type": "uint256"
								},
								{
									"internalType": "uint256",
									"name": "date",
									"type": "uint256"
								}
							],
							"internalType": "struct structPractice.class",
							"name": "",
							"type": "tuple"
						}
					],
					"stateMutability": "view",
					"type": "function"
				},
				{
					"inputs": [
						{
							"internalType": "uint256",
							"name": "_n",
							"type": "uint256"
						}
					],
					"name": "getMembers",
					"outputs": [
						{
							"components": [
								{
									"internalType": "uint256",
									"name": "number",
									"type": "uint256"
								},
								{
									"internalType": "string",
									"name": "name",
									"type": "string"
								},
								{
									"internalType": "bytes2",
									"name": "password",
									"type": "bytes2"
								}
							],
							"internalType": "struct structPractice.member",
							"name": "",
							"type": "tuple"
						}
					],
					"stateMutability": "view",
					"type": "function"
				},
				{
					"inputs": [],
					"name": "getS",
					"outputs": [
						{
							"components": [
								{
									"internalType": "string",
									"name": "name",
									"type": "string"
								},
								{
									"internalType": "uint256",
									"name": "number",
									"type": "uint256"
								},
								{
									"internalType": "uint256",
									"name": "birth",
									"type": "uint256"
								}
							],
							"internalType": "struct structPractice.student",
							"name": "",
							"type": "tuple"
						}
					],
					"stateMutability": "view",
					"type": "function"
				},
				{
					"inputs": [
						{
							"internalType": "string",
							"name": "_subject",
							"type": "string"
						},
						{
							"internalType": "uint256",
							"name": "_number",
							"type": "uint256"
						},
						{
							"internalType": "uint256",
							"name": "_date",
							"type": "uint256"
						}
					],
					"name": "pushClass",
					"outputs": [],
					"stateMutability": "nonpayable",
					"type": "function"
				},
				{
					"inputs": [
						{
							"internalType": "uint256",
							"name": "_a",
							"type": "uint256"
						},
						{
							"internalType": "string",
							"name": "_b",
							"type": "string"
						},
						{
							"internalType": "bytes2",
							"name": "_c",
							"type": "bytes2"
						}
					],
					"name": "pushD",
					"outputs": [],
					"stateMutability": "nonpayable",
					"type": "function"
				},
				{
					"inputs": [
						{
							"internalType": "uint256",
							"name": "_number",
							"type": "uint256"
						},
						{
							"internalType": "string",
							"name": "_name",
							"type": "string"
						},
						{
							"internalType": "bytes2",
							"name": "_password",
							"type": "bytes2"
						}
					],
					"name": "pushMember",
					"outputs": [],
					"stateMutability": "nonpayable",
					"type": "function"
				},
				{
					"inputs": [
						{
							"internalType": "string",
							"name": "_name",
							"type": "string"
						},
						{
							"internalType": "uint256",
							"name": "_number",
							"type": "uint256"
						},
						{
							"internalType": "uint256",
							"name": "_birth",
							"type": "uint256"
						}
					],
					"name": "pushStudent",
					"outputs": [],
					"stateMutability": "nonpayable",
					"type": "function"
				},
				{
					"inputs": [
						{
							"internalType": "string",
							"name": "_subject",
							"type": "string"
						},
						{
							"internalType": "uint256",
							"name": "_number",
							"type": "uint256"
						},
						{
							"internalType": "uint256",
							"name": "_date",
							"type": "uint256"
						}
					],
					"name": "setC",
					"outputs": [],
					"stateMutability": "nonpayable",
					"type": "function"
				},
				{
					"inputs": [
						{
							"internalType": "uint256",
							"name": "_a",
							"type": "uint256"
						},
						{
							"internalType": "string",
							"name": "_b",
							"type": "string"
						},
						{
							"internalType": "bytes2",
							"name": "_c",
							"type": "bytes2"
						}
					],
					"name": "setDD",
					"outputs": [],
					"stateMutability": "nonpayable",
					"type": "function"
				},
				{
					"inputs": [
						{
							"internalType": "uint256",
							"name": "_number",
							"type": "uint256"
						},
						{
							"internalType": "string",
							"name": "_name",
							"type": "string"
						},
						{
							"internalType": "bytes2",
							"name": "_password",
							"type": "bytes2"
						}
					],
					"name": "setM",
					"outputs": [],
					"stateMutability": "nonpayable",
					"type": "function"
				},
				{
					"inputs": [
						{
							"internalType": "string",
							"name": "_name",
							"type": "string"
						},
						{
							"internalType": "uint256",
							"name": "_number",
							"type": "uint256"
						},
						{
							"internalType": "uint256",
							"name": "_birth",
							"type": "uint256"
						}
					],
					"name": "setS",
					"outputs": [],
					"stateMutability": "nonpayable",
					"type": "function"
				}
			],
			"devdoc": {
				"kind": "dev",
				"methods": {},
				"version": 1
			},
			"evm": {
				"assembly": "    /* \"BCS/230508_01_Struct_Practice.sol\":216:3502  contract structPractice {... */\n  mstore(0x40, 0x80)\n  callvalue\n  dup1\n  iszero\n  tag_1\n  jumpi\n  0x00\n  dup1\n  revert\ntag_1:\n  pop\n  dataSize(sub_0)\n  dup1\n  dataOffset(sub_0)\n  0x00\n  codecopy\n  0x00\n  return\nstop\n\nsub_0: assembly {\n        /* \"BCS/230508_01_Struct_Practice.sol\":216:3502  contract structPractice {... */\n      mstore(0x40, 0x80)\n      callvalue\n      dup1\n      iszero\n      tag_1\n      jumpi\n      0x00\n      dup1\n      revert\n    tag_1:\n      pop\n      jumpi(tag_2, lt(calldatasize, 0x04))\n      shr(0xe0, calldataload(0x00))\n      dup1\n      0xa2375d1e\n      gt\n      tag_14\n      jumpi\n      dup1\n      0xa2375d1e\n      eq\n      tag_8\n      jumpi\n      dup1\n      0xc477ecab\n      eq\n      tag_9\n      jumpi\n      dup1\n      0xcd914def\n      eq\n      tag_10\n      jumpi\n      dup1\n      0xe93314ab\n      eq\n      tag_11\n      jumpi\n      dup1\n      0xedeb21cf\n      eq\n      tag_12\n      jumpi\n      dup1\n      0xfb49cfbc\n      eq\n      tag_13\n      jumpi\n      jump(tag_2)\n    tag_14:\n      dup1\n      0x1908791c\n      eq\n      tag_3\n      jumpi\n      dup1\n      0x49d3b319\n      eq\n      tag_4\n      jumpi\n      dup1\n      0x562ca543\n      eq\n      tag_5\n      jumpi\n      dup1\n      0x719a0017\n      eq\n      tag_6\n      jumpi\n      dup1\n      0x93dbeaa3\n      eq\n      tag_7\n      jumpi\n    tag_2:\n      0x00\n      dup1\n      revert\n        /* \"BCS/230508_01_Struct_Practice.sol\":2070:2165  function setDD(uint _a, string memory _b, bytes2 _c) public {... */\n    tag_3:\n      tag_15\n      0x04\n      dup1\n      calldatasize\n      sub\n      dup2\n      add\n      swap1\n      tag_16\n      swap2\n      swap1\n      tag_17\n      jump\t// in\n    tag_16:\n      tag_18\n      jump\t// in\n    tag_15:\n      stop\n        /* \"BCS/230508_01_Struct_Practice.sol\":3145:3291  function pushMember(uint _number, string memory _name, bytes2 _password) public {... */\n    tag_4:\n      tag_19\n      0x04\n      dup1\n      calldatasize\n      sub\n      dup2\n      add\n      swap1\n      tag_20\n      swap2\n      swap1\n      tag_17\n      jump\t// in\n    tag_20:\n      tag_21\n      jump\t// in\n    tag_19:\n      stop\n        /* \"BCS/230508_01_Struct_Practice.sol\":1470:1611  function pushStudent(string memory _name, uint _number, uint _birth) public {... */\n    tag_5:\n      tag_22\n      0x04\n      dup1\n      calldatasize\n      sub\n      dup2\n      add\n      swap1\n      tag_23\n      swap2\n      swap1\n      tag_24\n      jump\t// in\n    tag_23:\n      tag_25\n      jump\t// in\n    tag_22:\n      stop\n        /* \"BCS/230508_01_Struct_Practice.sol\":2976:3112  function setM(uint _number, string memory _name, bytes2 _password) public {... */\n    tag_6:\n      tag_26\n      0x04\n      dup1\n      calldatasize\n      sub\n      dup2\n      add\n      swap1\n      tag_27\n      swap2\n      swap1\n      tag_17\n      jump\t// in\n    tag_27:\n      tag_28\n      jump\t// in\n    tag_26:\n      stop\n        /* \"BCS/230508_01_Struct_Practice.sol\":781:906  function setC(string memory _subject, uint _number, uint _date) public {... */\n    tag_7:\n      tag_29\n      0x04\n      dup1\n      calldatasize\n      sub\n      dup2\n      add\n      swap1\n      tag_30\n      swap2\n      swap1\n      tag_24\n      jump\t// in\n    tag_30:\n      tag_31\n      jump\t// in\n    tag_29:\n      stop\n        /* \"BCS/230508_01_Struct_Practice.sol\":1120:1197  function getC() public view returns(class memory) {... */\n    tag_8:\n      tag_32\n      tag_33\n      jump\t// in\n    tag_32:\n      mload(0x40)\n      tag_34\n      swap2\n      swap1\n      tag_35\n      jump\t// in\n    tag_34:\n      mload(0x40)\n      dup1\n      swap2\n      sub\n      swap1\n      return\n        /* \"BCS/230508_01_Struct_Practice.sol\":3392:3493  function getMembers(uint _n) public view returns(member memory) {... */\n    tag_9:\n      tag_36\n      0x04\n      dup1\n      calldatasize\n      sub\n      dup2\n      add\n      swap1\n      tag_37\n      swap2\n      swap1\n      tag_38\n      jump\t// in\n    tag_37:\n      tag_39\n      jump\t// in\n    tag_36:\n      mload(0x40)\n      tag_40\n      swap2\n      swap1\n      tag_41\n      jump\t// in\n    tag_40:\n      mload(0x40)\n      dup1\n      swap2\n      sub\n      swap1\n      return\n        /* \"BCS/230508_01_Struct_Practice.sol\":2333:2432  function pushD(uint _a, string memory _b, bytes2 _c) public {... */\n    tag_10:\n      tag_42\n      0x04\n      dup1\n      calldatasize\n      sub\n      dup2\n      add\n      swap1\n      tag_43\n      swap2\n      swap1\n      tag_17\n      jump\t// in\n    tag_43:\n      tag_44\n      jump\t// in\n    tag_42:\n      stop\n        /* \"BCS/230508_01_Struct_Practice.sol\":1033:1112  function getS() public view returns(student memory) {... */\n    tag_11:\n      tag_45\n      tag_46\n      jump\t// in\n    tag_45:\n      mload(0x40)\n      tag_47\n      swap2\n      swap1\n      tag_48\n      jump\t// in\n    tag_47:\n      mload(0x40)\n      dup1\n      swap2\n      sub\n      swap1\n      return\n        /* \"BCS/230508_01_Struct_Practice.sol\":1619:1756  function pushClass(string memory _subject, uint _number, uint _date) public {... */\n    tag_12:\n      tag_49\n      0x04\n      dup1\n      calldatasize\n      sub\n      dup2\n      add\n      swap1\n      tag_50\n      swap2\n      swap1\n      tag_24\n      jump\t// in\n    tag_50:\n      tag_51\n      jump\t// in\n    tag_49:\n      stop\n        /* \"BCS/230508_01_Struct_Practice.sol\":650:773  function setS(string memory _name, uint _number, uint _birth) public {... */\n    tag_13:\n      tag_52\n      0x04\n      dup1\n      calldatasize\n      sub\n      dup2\n      add\n      swap1\n      tag_53\n      swap2\n      swap1\n      tag_24\n      jump\t// in\n    tag_53:\n      tag_54\n      jump\t// in\n    tag_52:\n      stop\n        /* \"BCS/230508_01_Struct_Practice.sol\":2070:2165  function setDD(uint _a, string memory _b, bytes2 _c) public {... */\n    tag_18:\n        /* \"BCS/230508_01_Struct_Practice.sol\":2146:2157  D(_a,_b,_c) */\n      mload(0x40)\n      dup1\n      0x60\n      add\n      0x40\n      mstore\n      dup1\n        /* \"BCS/230508_01_Struct_Practice.sol\":2148:2150  _a */\n      dup5\n        /* \"BCS/230508_01_Struct_Practice.sol\":2146:2157  D(_a,_b,_c) */\n      dup2\n      mstore\n      0x20\n      add\n        /* \"BCS/230508_01_Struct_Practice.sol\":2151:2153  _b */\n      dup4\n        /* \"BCS/230508_01_Struct_Practice.sol\":2146:2157  D(_a,_b,_c) */\n      dup2\n      mstore\n      0x20\n      add\n        /* \"BCS/230508_01_Struct_Practice.sol\":2154:2156  _c */\n      dup3\n        /* \"BCS/230508_01_Struct_Practice.sol\":2146:2157  D(_a,_b,_c) */\n      not(0xffffffffffffffffffffffffffffffffffffffffffffffffffffffffffff)\n      and\n      dup2\n      mstore\n      pop\n        /* \"BCS/230508_01_Struct_Practice.sol\":2141:2143  dd */\n      0x08\n        /* \"BCS/230508_01_Struct_Practice.sol\":2141:2157  dd = D(_a,_b,_c) */\n      0x00\n      dup3\n      add\n      mload\n      dup2\n      0x00\n      add\n      sstore\n      0x20\n      dup3\n      add\n      mload\n      dup2\n      0x01\n      add\n      swap1\n      dup2\n      tag_56\n      swap2\n      swap1\n      tag_57\n      jump\t// in\n    tag_56:\n      pop\n      0x40\n      dup3\n      add\n      mload\n      dup2\n      0x02\n      add\n      exp(0x0100, 0x00)\n      dup2\n      sload\n      dup2\n      0xffff\n      mul\n      not\n      and\n      swap1\n      dup4\n      0xf0\n      shr\n      mul\n      or\n      swap1\n      sstore\n      pop\n      swap1\n      pop\n      pop\n        /* \"BCS/230508_01_Struct_Practice.sol\":2070:2165  function setDD(uint _a, string memory _b, bytes2 _c) public {... */\n      pop\n      pop\n      pop\n      jump\t// out\n        /* \"BCS/230508_01_Struct_Practice.sol\":3145:3291  function pushMember(uint _number, string memory _name, bytes2 _password) public {... */\n    tag_21:\n        /* \"BCS/230508_01_Struct_Practice.sol\":3236:3243  members */\n      0x0f\n        /* \"BCS/230508_01_Struct_Practice.sol\":3249:3282  member(_number, _name, _password) */\n      mload(0x40)\n      dup1\n      0x60\n      add\n      0x40\n      mstore\n      dup1\n        /* \"BCS/230508_01_Struct_Practice.sol\":3256:3263  _number */\n      dup6\n        /* \"BCS/230508_01_Struct_Practice.sol\":3249:3282  member(_number, _name, _password) */\n      dup2\n      mstore\n      0x20\n      add\n        /* \"BCS/230508_01_Struct_Practice.sol\":3265:3270  _name */\n      dup5\n        /* \"BCS/230508_01_Struct_Practice.sol\":3249:3282  member(_number, _name, _password) */\n      dup2\n      mstore\n      0x20\n      add\n        /* \"BCS/230508_01_Struct_Practice.sol\":3272:3281  _password */\n      dup4\n        /* \"BCS/230508_01_Struct_Practice.sol\":3249:3282  member(_number, _name, _password) */\n      not(0xffffffffffffffffffffffffffffffffffffffffffffffffffffffffffff)\n      and\n      dup2\n      mstore\n      pop\n        /* \"BCS/230508_01_Struct_Practice.sol\":3236:3283  members.push(member(_number, _name, _password)) */\n      swap1\n      dup1\n      0x01\n      dup2\n      sload\n      add\n      dup1\n      dup3\n      sstore\n      dup1\n      swap2\n      pop\n      pop\n      0x01\n      swap1\n      sub\n      swap1\n      0x00\n      mstore\n      keccak256(0x00, 0x20)\n      swap1\n      0x03\n      mul\n      add\n      0x00\n      swap1\n      swap2\n      swap1\n      swap2\n      swap1\n      swap2\n      pop\n      0x00\n      dup3\n      add\n      mload\n      dup2\n      0x00\n      add\n      sstore\n      0x20\n      dup3\n      add\n      mload\n      dup2\n      0x01\n      add\n      swap1\n      dup2\n      tag_60\n      swap2\n      swap1\n      tag_57\n      jump\t// in\n    tag_60:\n      pop\n      0x40\n      dup3\n      add\n      mload\n      dup2\n      0x02\n      add\n      exp(0x0100, 0x00)\n      dup2\n      sload\n      dup2\n      0xffff\n      mul\n      not\n      and\n      swap1\n      dup4\n      0xf0\n      shr\n      mul\n      or\n      swap1\n      sstore\n      pop\n      pop\n      pop\n        /* \"BCS/230508_01_Struct_Practice.sol\":3145:3291  function pushMember(uint _number, string memory _name, bytes2 _password) public {... */\n      pop\n      pop\n      pop\n      jump\t// out\n        /* \"BCS/230508_01_Struct_Practice.sol\":1470:1611  function pushStudent(string memory _name, uint _number, uint _birth) public {... */\n    tag_25:\n        /* \"BCS/230508_01_Struct_Practice.sol\":1557:1565  students */\n      0x06\n        /* \"BCS/230508_01_Struct_Practice.sol\":1571:1602  student(_name, _number, _birth) */\n      mload(0x40)\n      dup1\n      0x60\n      add\n      0x40\n      mstore\n      dup1\n        /* \"BCS/230508_01_Struct_Practice.sol\":1579:1584  _name */\n      dup6\n        /* \"BCS/230508_01_Struct_Practice.sol\":1571:1602  student(_name, _number, _birth) */\n      dup2\n      mstore\n      0x20\n      add\n        /* \"BCS/230508_01_Struct_Practice.sol\":1586:1593  _number */\n      dup5\n        /* \"BCS/230508_01_Struct_Practice.sol\":1571:1602  student(_name, _number, _birth) */\n      dup2\n      mstore\n      0x20\n      add\n        /* \"BCS/230508_01_Struct_Practice.sol\":1595:1601  _birth */\n      dup4\n        /* \"BCS/230508_01_Struct_Practice.sol\":1571:1602  student(_name, _number, _birth) */\n      dup2\n      mstore\n      pop\n        /* \"BCS/230508_01_Struct_Practice.sol\":1557:1603  students.push(student(_name, _number, _birth)) */\n      swap1\n      dup1\n      0x01\n      dup2\n      sload\n      add\n      dup1\n      dup3\n      sstore\n      dup1\n      swap2\n      pop\n      pop\n      0x01\n      swap1\n      sub\n      swap1\n      0x00\n      mstore\n      keccak256(0x00, 0x20)\n      swap1\n      0x03\n      mul\n      add\n      0x00\n      swap1\n      swap2\n      swap1\n      swap2\n      swap1\n      swap2\n      pop\n      0x00\n      dup3\n      add\n      mload\n      dup2\n      0x00\n      add\n      swap1\n      dup2\n      tag_63\n      swap2\n      swap1\n      tag_57\n      jump\t// in\n    tag_63:\n      pop\n      0x20\n      dup3\n      add\n      mload\n      dup2\n      0x01\n      add\n      sstore\n      0x40\n      dup3\n      add\n      mload\n      dup2\n      0x02\n      add\n      sstore\n      pop\n      pop\n        /* \"BCS/230508_01_Struct_Practice.sol\":1470:1611  function pushStudent(string memory _name, uint _number, uint _birth) public {... */\n      pop\n      pop\n      pop\n      jump\t// out\n        /* \"BCS/230508_01_Struct_Practice.sol\":2976:3112  function setM(uint _number, string memory _name, bytes2 _password) public {... */\n    tag_28:\n        /* \"BCS/230508_01_Struct_Practice.sol\":3071:3104  member(_number, _name, _password) */\n      mload(0x40)\n      dup1\n      0x60\n      add\n      0x40\n      mstore\n      dup1\n        /* \"BCS/230508_01_Struct_Practice.sol\":3078:3085  _number */\n      dup5\n        /* \"BCS/230508_01_Struct_Practice.sol\":3071:3104  member(_number, _name, _password) */\n      dup2\n      mstore\n      0x20\n      add\n        /* \"BCS/230508_01_Struct_Practice.sol\":3087:3092  _name */\n      dup4\n        /* \"BCS/230508_01_Struct_Practice.sol\":3071:3104  member(_number, _name, _password) */\n      dup2\n      mstore\n      0x20\n      add\n        /* \"BCS/230508_01_Struct_Practice.sol\":3094:3103  _password */\n      dup3\n        /* \"BCS/230508_01_Struct_Practice.sol\":3071:3104  member(_number, _name, _password) */\n      not(0xffffffffffffffffffffffffffffffffffffffffffffffffffffffffffff)\n      and\n      dup2\n      mstore\n      pop\n        /* \"BCS/230508_01_Struct_Practice.sol\":3061:3068  Michael */\n      0x0c\n        /* \"BCS/230508_01_Struct_Practice.sol\":3061:3104  Michael = member(_number, _name, _password) */\n      0x00\n      dup3\n      add\n      mload\n      dup2\n      0x00\n      add\n      sstore\n      0x20\n      dup3\n      add\n      mload\n      dup2\n      0x01\n      add\n      swap1\n      dup2\n      tag_65\n      swap2\n      swap1\n      tag_57\n      jump\t// in\n    tag_65:\n      pop\n      0x40\n      dup3\n      add\n      mload\n      dup2\n      0x02\n      add\n      exp(0x0100, 0x00)\n      dup2\n      sload\n      dup2\n      0xffff\n      mul\n      not\n      and\n      swap1\n      dup4\n      0xf0\n      shr\n      mul\n      or\n      swap1\n      sstore\n      pop\n      swap1\n      pop\n      pop\n        /* \"BCS/230508_01_Struct_Practice.sol\":2976:3112  function setM(uint _number, string memory _name, bytes2 _password) public {... */\n      pop\n      pop\n      pop\n      jump\t// out\n        /* \"BCS/230508_01_Struct_Practice.sol\":781:906  function setC(string memory _subject, uint _number, uint _date) public {... */\n    tag_31:\n        /* \"BCS/230508_01_Struct_Practice.sol\":867:898  class(_subject, _number, _date) */\n      mload(0x40)\n      dup1\n      0x60\n      add\n      0x40\n      mstore\n      dup1\n        /* \"BCS/230508_01_Struct_Practice.sol\":873:881  _subject */\n      dup5\n        /* \"BCS/230508_01_Struct_Practice.sol\":867:898  class(_subject, _number, _date) */\n      dup2\n      mstore\n      0x20\n      add\n        /* \"BCS/230508_01_Struct_Practice.sol\":883:890  _number */\n      dup4\n        /* \"BCS/230508_01_Struct_Practice.sol\":867:898  class(_subject, _number, _date) */\n      dup2\n      mstore\n      0x20\n      add\n        /* \"BCS/230508_01_Struct_Practice.sol\":892:897  _date */\n      dup3\n        /* \"BCS/230508_01_Struct_Practice.sol\":867:898  class(_subject, _number, _date) */\n      dup2\n      mstore\n      pop\n        /* \"BCS/230508_01_Struct_Practice.sol\":863:864  c */\n      0x03\n        /* \"BCS/230508_01_Struct_Practice.sol\":863:898  c = class(_subject, _number, _date) */\n      0x00\n      dup3\n      add\n      mload\n      dup2\n      0x00\n      add\n      swap1\n      dup2\n      tag_67\n      swap2\n      swap1\n      tag_57\n      jump\t// in\n    tag_67:\n      pop\n      0x20\n      dup3\n      add\n      mload\n      dup2\n      0x01\n      add\n      sstore\n      0x40\n      dup3\n      add\n      mload\n      dup2\n      0x02\n      add\n      sstore\n      swap1\n      pop\n      pop\n        /* \"BCS/230508_01_Struct_Practice.sol\":781:906  function setC(string memory _subject, uint _number, uint _date) public {... */\n      pop\n      pop\n      pop\n      jump\t// out\n        /* \"BCS/230508_01_Struct_Practice.sol\":1120:1197  function getC() public view returns(class memory) {... */\n    tag_33:\n        /* \"BCS/230508_01_Struct_Practice.sol\":1156:1168  class memory */\n      tag_68\n      tag_69\n      jump\t// in\n    tag_68:\n        /* \"BCS/230508_01_Struct_Practice.sol\":1188:1189  c */\n      0x03\n        /* \"BCS/230508_01_Struct_Practice.sol\":1181:1189  return c */\n      mload(0x40)\n      dup1\n      0x60\n      add\n      0x40\n      mstore\n      swap1\n      dup2\n      0x00\n      dup3\n      add\n      dup1\n      sload\n      tag_71\n      swap1\n      tag_72\n      jump\t// in\n    tag_71:\n      dup1\n      0x1f\n      add\n      0x20\n      dup1\n      swap2\n      div\n      mul\n      0x20\n      add\n      mload(0x40)\n      swap1\n      dup2\n      add\n      0x40\n      mstore\n      dup1\n      swap3\n      swap2\n      swap1\n      dup2\n      dup2\n      mstore\n      0x20\n      add\n      dup3\n      dup1\n      sload\n      tag_73\n      swap1\n      tag_72\n      jump\t// in\n    tag_73:\n      dup1\n      iszero\n      tag_74\n      jumpi\n      dup1\n      0x1f\n      lt\n      tag_75\n      jumpi\n      0x0100\n      dup1\n      dup4\n      sload\n      div\n      mul\n      dup4\n      mstore\n      swap2\n      0x20\n      add\n      swap2\n      jump(tag_74)\n    tag_75:\n      dup3\n      add\n      swap2\n      swap1\n      0x00\n      mstore\n      keccak256(0x00, 0x20)\n      swap1\n    tag_76:\n      dup2\n      sload\n      dup2\n      mstore\n      swap1\n      0x01\n      add\n      swap1\n      0x20\n      add\n      dup1\n      dup4\n      gt\n      tag_76\n      jumpi\n      dup3\n      swap1\n      sub\n      0x1f\n      and\n      dup3\n      add\n      swap2\n    tag_74:\n      pop\n      pop\n      pop\n      pop\n      pop\n      dup2\n      mstore\n      0x20\n      add\n      0x01\n      dup3\n      add\n      sload\n      dup2\n      mstore\n      0x20\n      add\n      0x02\n      dup3\n      add\n      sload\n      dup2\n      mstore\n      pop\n      pop\n      swap1\n      pop\n        /* \"BCS/230508_01_Struct_Practice.sol\":1120:1197  function getC() public view returns(class memory) {... */\n      swap1\n      jump\t// out\n        /* \"BCS/230508_01_Struct_Practice.sol\":3392:3493  function getMembers(uint _n) public view returns(member memory) {... */\n    tag_39:\n        /* \"BCS/230508_01_Struct_Practice.sol\":3441:3454  member memory */\n      tag_77\n      tag_78\n      jump\t// in\n    tag_77:\n        /* \"BCS/230508_01_Struct_Practice.sol\":3474:3481  members */\n      0x0f\n        /* \"BCS/230508_01_Struct_Practice.sol\":3482:3484  _n */\n      dup3\n        /* \"BCS/230508_01_Struct_Practice.sol\":3474:3485  members[_n] */\n      dup2\n      sload\n      dup2\n      lt\n      tag_80\n      jumpi\n      tag_81\n      tag_82\n      jump\t// in\n    tag_81:\n    tag_80:\n      swap1\n      0x00\n      mstore\n      keccak256(0x00, 0x20)\n      swap1\n      0x03\n      mul\n      add\n        /* \"BCS/230508_01_Struct_Practice.sol\":3467:3485  return members[_n] */\n      mload(0x40)\n      dup1\n      0x60\n      add\n      0x40\n      mstore\n      swap1\n      dup2\n      0x00\n      dup3\n      add\n      sload\n      dup2\n      mstore\n      0x20\n      add\n      0x01\n      dup3\n      add\n      dup1\n      sload\n      tag_84\n      swap1\n      tag_72\n      jump\t// in\n    tag_84:\n      dup1\n      0x1f\n      add\n      0x20\n      dup1\n      swap2\n      div\n      mul\n      0x20\n      add\n      mload(0x40)\n      swap1\n      dup2\n      add\n      0x40\n      mstore\n      dup1\n      swap3\n      swap2\n      swap1\n      dup2\n      dup2\n      mstore\n      0x20\n      add\n      dup3\n      dup1\n      sload\n      tag_85\n      swap1\n      tag_72\n      jump\t// in\n    tag_85:\n      dup1\n      iszero\n      tag_86\n      jumpi\n      dup1\n      0x1f\n      lt\n      tag_87\n      jumpi\n      0x0100\n      dup1\n      dup4\n      sload\n      div\n      mul\n      dup4\n      mstore\n      swap2\n      0x20\n      add\n      swap2\n      jump(tag_86)\n    tag_87:\n      dup3\n      add\n      swap2\n      swap1\n      0x00\n      mstore\n      keccak256(0x00, 0x20)\n      swap1\n    tag_88:\n      dup2\n      sload\n      dup2\n      mstore\n      swap1\n      0x01\n      add\n      swap1\n      0x20\n      add\n      dup1\n      dup4\n      gt\n      tag_88\n      jumpi\n      dup3\n      swap1\n      sub\n      0x1f\n      and\n      dup3\n      add\n      swap2\n    tag_86:\n      pop\n      pop\n      pop\n      pop\n      pop\n      dup2\n      mstore\n      0x20\n      add\n      0x02\n      dup3\n      add\n      0x00\n      swap1\n      sload\n      swap1\n      0x0100\n      exp\n      swap1\n      div\n      0xf0\n      shl\n      not(0xffffffffffffffffffffffffffffffffffffffffffffffffffffffffffff)\n      and\n      not(0xffffffffffffffffffffffffffffffffffffffffffffffffffffffffffff)\n      and\n      dup2\n      mstore\n      pop\n      pop\n      swap1\n      pop\n        /* \"BCS/230508_01_Struct_Practice.sol\":3392:3493  function getMembers(uint _n) public view returns(member memory) {... */\n      swap2\n      swap1\n      pop\n      jump\t// out\n        /* \"BCS/230508_01_Struct_Practice.sol\":2333:2432  function pushD(uint _a, string memory _b, bytes2 _c) public {... */\n    tag_44:\n        /* \"BCS/230508_01_Struct_Practice.sol\":2404:2406  Ds */\n      0x0b\n        /* \"BCS/230508_01_Struct_Practice.sol\":2412:2423  D(_a,_b,_c) */\n      mload(0x40)\n      dup1\n      0x60\n      add\n      0x40\n      mstore\n      dup1\n        /* \"BCS/230508_01_Struct_Practice.sol\":2414:2416  _a */\n      dup6\n        /* \"BCS/230508_01_Struct_Practice.sol\":2412:2423  D(_a,_b,_c) */\n      dup2\n      mstore\n      0x20\n      add\n        /* \"BCS/230508_01_Struct_Practice.sol\":2417:2419  _b */\n      dup5\n        /* \"BCS/230508_01_Struct_Practice.sol\":2412:2423  D(_a,_b,_c) */\n      dup2\n      mstore\n      0x20\n      add\n        /* \"BCS/230508_01_Struct_Practice.sol\":2420:2422  _c */\n      dup4\n        /* \"BCS/230508_01_Struct_Practice.sol\":2412:2423  D(_a,_b,_c) */\n      not(0xffffffffffffffffffffffffffffffffffffffffffffffffffffffffffff)\n      and\n      dup2\n      mstore\n      pop\n        /* \"BCS/230508_01_Struct_Practice.sol\":2404:2424  Ds.push(D(_a,_b,_c)) */\n      swap1\n      dup1\n      0x01\n      dup2\n      sload\n      add\n      dup1\n      dup3\n      sstore\n      dup1\n      swap2\n      pop\n      pop\n      0x01\n      swap1\n      sub\n      swap1\n      0x00\n      mstore\n      keccak256(0x00, 0x20)\n      swap1\n      0x03\n      mul\n      add\n      0x00\n      swap1\n      swap2\n      swap1\n      swap2\n      swap1\n      swap2\n      pop\n      0x00\n      dup3\n      add\n      mload\n      dup2\n      0x00\n      add\n      sstore\n      0x20\n      dup3\n      add\n      mload\n      dup2\n      0x01\n      add\n      swap1\n      dup2\n      tag_91\n      swap2\n      swap1\n      tag_57\n      jump\t// in\n    tag_91:\n      pop\n      0x40\n      dup3\n      add\n      mload\n      dup2\n      0x02\n      add\n      exp(0x0100, 0x00)\n      dup2\n      sload\n      dup2\n      0xffff\n      mul\n      not\n      and\n      swap1\n      dup4\n      0xf0\n      shr\n      mul\n      or\n      swap1\n      sstore\n      pop\n      pop\n      pop\n        /* \"BCS/230508_01_Struct_Practice.sol\":2333:2432  function pushD(uint _a, string memory _b, bytes2 _c) public {... */\n      pop\n      pop\n      pop\n      jump\t// out\n        /* \"BCS/230508_01_Struct_Practice.sol\":1033:1112  function getS() public view returns(student memory) {... */\n    tag_46:\n        /* \"BCS/230508_01_Struct_Practice.sol\":1069:1083  student memory */\n      tag_92\n      tag_93\n      jump\t// in\n    tag_92:\n        /* \"BCS/230508_01_Struct_Practice.sol\":1103:1104  s */\n      0x00\n        /* \"BCS/230508_01_Struct_Practice.sol\":1096:1104  return s */\n      mload(0x40)\n      dup1\n      0x60\n      add\n      0x40\n      mstore\n      swap1\n      dup2\n      0x00\n      dup3\n      add\n      dup1\n      sload\n      tag_95\n      swap1\n      tag_72\n      jump\t// in\n    tag_95:\n      dup1\n      0x1f\n      add\n      0x20\n      dup1\n      swap2\n      div\n      mul\n      0x20\n      add\n      mload(0x40)\n      swap1\n      dup2\n      add\n      0x40\n      mstore\n      dup1\n      swap3\n      swap2\n      swap1\n      dup2\n      dup2\n      mstore\n      0x20\n      add\n      dup3\n      dup1\n      sload\n      tag_96\n      swap1\n      tag_72\n      jump\t// in\n    tag_96:\n      dup1\n      iszero\n      tag_97\n      jumpi\n      dup1\n      0x1f\n      lt\n      tag_98\n      jumpi\n      0x0100\n      dup1\n      dup4\n      sload\n      div\n      mul\n      dup4\n      mstore\n      swap2\n      0x20\n      add\n      swap2\n      jump(tag_97)\n    tag_98:\n      dup3\n      add\n      swap2\n      swap1\n      0x00\n      mstore\n      keccak256(0x00, 0x20)\n      swap1\n    tag_99:\n      dup2\n      sload\n      dup2\n      mstore\n      swap1\n      0x01\n      add\n      swap1\n      0x20\n      add\n      dup1\n      dup4\n      gt\n      tag_99\n      jumpi\n      dup3\n      swap1\n      sub\n      0x1f\n      and\n      dup3\n      add\n      swap2\n    tag_97:\n      pop\n      pop\n      pop\n      pop\n      pop\n      dup2\n      mstore\n      0x20\n      add\n      0x01\n      dup3\n      add\n      sload\n      dup2\n      mstore\n      0x20\n      add\n      0x02\n      dup3\n      add\n      sload\n      dup2\n      mstore\n      pop\n      pop\n      swap1\n      pop\n        /* \"BCS/230508_01_Struct_Practice.sol\":1033:1112  function getS() public view returns(student memory) {... */\n      swap1\n      jump\t// out\n        /* \"BCS/230508_01_Struct_Practice.sol\":1619:1756  function pushClass(string memory _subject, uint _number, uint _date) public {... */\n    tag_51:\n        /* \"BCS/230508_01_Struct_Practice.sol\":1706:1712  classs */\n      0x07\n        /* \"BCS/230508_01_Struct_Practice.sol\":1718:1747  class(_subject,_number,_date) */\n      mload(0x40)\n      dup1\n      0x60\n      add\n      0x40\n      mstore\n      dup1\n        /* \"BCS/230508_01_Struct_Practice.sol\":1724:1732  _subject */\n      dup6\n        /* \"BCS/230508_01_Struct_Practice.sol\":1718:1747  class(_subject,_number,_date) */\n      dup2\n      mstore\n      0x20\n      add\n        /* \"BCS/230508_01_Struct_Practice.sol\":1733:1740  _number */\n      dup5\n        /* \"BCS/230508_01_Struct_Practice.sol\":1718:1747  class(_subject,_number,_date) */\n      dup2\n      mstore\n      0x20\n      add\n        /* \"BCS/230508_01_Struct_Practice.sol\":1741:1746  _date */\n      dup4\n        /* \"BCS/230508_01_Struct_Practice.sol\":1718:1747  class(_subject,_number,_date) */\n      dup2\n      mstore\n      pop\n        /* \"BCS/230508_01_Struct_Practice.sol\":1706:1748  classs.push(class(_subject,_number,_date)) */\n      swap1\n      dup1\n      0x01\n      dup2\n      sload\n      add\n      dup1\n      dup3\n      sstore\n      dup1\n      swap2\n      pop\n      pop\n      0x01\n      swap1\n      sub\n      swap1\n      0x00\n      mstore\n      keccak256(0x00, 0x20)\n      swap1\n      0x03\n      mul\n      add\n      0x00\n      swap1\n      swap2\n      swap1\n      swap2\n      swap1\n      swap2\n      pop\n      0x00\n      dup3\n      add\n      mload\n      dup2\n      0x00\n      add\n      swap1\n      dup2\n      tag_102\n      swap2\n      swap1\n      tag_57\n      jump\t// in\n    tag_102:\n      pop\n      0x20\n      dup3\n      add\n      mload\n      dup2\n      0x01\n      add\n      sstore\n      0x40\n      dup3\n      add\n      mload\n      dup2\n      0x02\n      add\n      sstore\n      pop\n      pop\n        /* \"BCS/230508_01_Struct_Practice.sol\":1619:1756  function pushClass(string memory _subject, uint _number, uint _date) public {... */\n      pop\n      pop\n      pop\n      jump\t// out\n        /* \"BCS/230508_01_Struct_Practice.sol\":650:773  function setS(string memory _name, uint _number, uint _birth) public {... */\n    tag_54:\n        /* \"BCS/230508_01_Struct_Practice.sol\":734:765  student(_name, _number, _birth) */\n      mload(0x40)\n      dup1\n      0x60\n      add\n      0x40\n      mstore\n      dup1\n        /* \"BCS/230508_01_Struct_Practice.sol\":742:747  _name */\n      dup5\n        /* \"BCS/230508_01_Struct_Practice.sol\":734:765  student(_name, _number, _birth) */\n      dup2\n      mstore\n      0x20\n      add\n        /* \"BCS/230508_01_Struct_Practice.sol\":749:756  _number */\n      dup4\n        /* \"BCS/230508_01_Struct_Practice.sol\":734:765  student(_name, _number, _birth) */\n      dup2\n      mstore\n      0x20\n      add\n        /* \"BCS/230508_01_Struct_Practice.sol\":758:764  _birth */\n      dup3\n        /* \"BCS/230508_01_Struct_Practice.sol\":734:765  student(_name, _number, _birth) */\n      dup2\n      mstore\n      pop\n        /* \"BCS/230508_01_Struct_Practice.sol\":730:731  s */\n      0x00\n        /* \"BCS/230508_01_Struct_Practice.sol\":730:765  s = student(_name, _number, _birth) */\n      dup1\n      dup3\n      add\n      mload\n      dup2\n      0x00\n      add\n      swap1\n      dup2\n      tag_104\n      swap2\n      swap1\n      tag_57\n      jump\t// in\n    tag_104:\n      pop\n      0x20\n      dup3\n      add\n      mload\n      dup2\n      0x01\n      add\n      sstore\n      0x40\n      dup3\n      add\n      mload\n      dup2\n      0x02\n      add\n      sstore\n      swap1\n      pop\n      pop\n        /* \"BCS/230508_01_Struct_Practice.sol\":650:773  function setS(string memory _name, uint _number, uint _birth) public {... */\n      pop\n      pop\n      pop\n      jump\t// out\n    tag_69:\n      mload(0x40)\n      dup1\n      0x60\n      add\n      0x40\n      mstore\n      dup1\n      0x60\n      dup2\n      mstore\n      0x20\n      add\n      0x00\n      dup2\n      mstore\n      0x20\n      add\n      0x00\n      dup2\n      mstore\n      pop\n      swap1\n      jump\t// out\n    tag_78:\n      mload(0x40)\n      dup1\n      0x60\n      add\n      0x40\n      mstore\n      dup1\n      0x00\n      dup2\n      mstore\n      0x20\n      add\n      0x60\n      dup2\n      mstore\n      0x20\n      add\n      and(not(0xffffffffffffffffffffffffffffffffffffffffffffffffffffffffffff), 0x00)\n      dup2\n      mstore\n      pop\n      swap1\n      jump\t// out\n    tag_93:\n      mload(0x40)\n      dup1\n      0x60\n      add\n      0x40\n      mstore\n      dup1\n      0x60\n      dup2\n      mstore\n      0x20\n      add\n      0x00\n      dup2\n      mstore\n      0x20\n      add\n      0x00\n      dup2\n      mstore\n      pop\n      swap1\n      jump\t// out\n        /* \"#utility.yul\":7:82   */\n    tag_105:\n        /* \"#utility.yul\":40:46   */\n      0x00\n        /* \"#utility.yul\":73:75   */\n      0x40\n        /* \"#utility.yul\":67:76   */\n      mload\n        /* \"#utility.yul\":57:76   */\n      swap1\n      pop\n        /* \"#utility.yul\":7:82   */\n      swap1\n      jump\t// out\n        /* \"#utility.yul\":88:205   */\n    tag_106:\n        /* \"#utility.yul\":197:198   */\n      0x00\n        /* \"#utility.yul\":194:195   */\n      dup1\n        /* \"#utility.yul\":187:199   */\n      revert\n        /* \"#utility.yul\":211:328   */\n    tag_107:\n        /* \"#utility.yul\":320:321   */\n      0x00\n        /* \"#utility.yul\":317:318   */\n      dup1\n        /* \"#utility.yul\":310:322   */\n      revert\n        /* \"#utility.yul\":334:411   */\n    tag_108:\n        /* \"#utility.yul\":371:378   */\n      0x00\n        /* \"#utility.yul\":400:405   */\n      dup2\n        /* \"#utility.yul\":389:405   */\n      swap1\n      pop\n        /* \"#utility.yul\":334:411   */\n      swap2\n      swap1\n      pop\n      jump\t// out\n        /* \"#utility.yul\":417:539   */\n    tag_109:\n        /* \"#utility.yul\":490:514   */\n      tag_155\n        /* \"#utility.yul\":508:513   */\n      dup2\n        /* \"#utility.yul\":490:514   */\n      tag_108\n      jump\t// in\n    tag_155:\n        /* \"#utility.yul\":483:488   */\n      dup2\n        /* \"#utility.yul\":480:515   */\n      eq\n        /* \"#utility.yul\":470:533   */\n      tag_156\n      jumpi\n        /* \"#utility.yul\":529:530   */\n      0x00\n        /* \"#utility.yul\":526:527   */\n      dup1\n        /* \"#utility.yul\":519:531   */\n      revert\n        /* \"#utility.yul\":470:533   */\n    tag_156:\n        /* \"#utility.yul\":417:539   */\n      pop\n      jump\t// out\n        /* \"#utility.yul\":545:684   */\n    tag_110:\n        /* \"#utility.yul\":591:596   */\n      0x00\n        /* \"#utility.yul\":629:635   */\n      dup2\n        /* \"#utility.yul\":616:636   */\n      calldataload\n        /* \"#utility.yul\":607:636   */\n      swap1\n      pop\n        /* \"#utility.yul\":645:678   */\n      tag_158\n        /* \"#utility.yul\":672:677   */\n      dup2\n        /* \"#utility.yul\":645:678   */\n      tag_109\n      jump\t// in\n    tag_158:\n        /* \"#utility.yul\":545:684   */\n      swap3\n      swap2\n      pop\n      pop\n      jump\t// out\n        /* \"#utility.yul\":690:807   */\n    tag_111:\n        /* \"#utility.yul\":799:800   */\n      0x00\n        /* \"#utility.yul\":796:797   */\n      dup1\n        /* \"#utility.yul\":789:801   */\n      revert\n        /* \"#utility.yul\":813:930   */\n    tag_112:\n        /* \"#utility.yul\":922:923   */\n      0x00\n        /* \"#utility.yul\":919:920   */\n      dup1\n        /* \"#utility.yul\":912:924   */\n      revert\n        /* \"#utility.yul\":936:1038   */\n    tag_113:\n        /* \"#utility.yul\":977:983   */\n      0x00\n        /* \"#utility.yul\":1028:1030   */\n      0x1f\n        /* \"#utility.yul\":1024:1031   */\n      not\n        /* \"#utility.yul\":1019:1021   */\n      0x1f\n        /* \"#utility.yul\":1012:1017   */\n      dup4\n        /* \"#utility.yul\":1008:1022   */\n      add\n        /* \"#utility.yul\":1004:1032   */\n      and\n        /* \"#utility.yul\":994:1032   */\n      swap1\n      pop\n        /* \"#utility.yul\":936:1038   */\n      swap2\n      swap1\n      pop\n      jump\t// out\n        /* \"#utility.yul\":1044:1224   */\n    tag_114:\n        /* \"#utility.yul\":1092:1169   */\n      0x4e487b7100000000000000000000000000000000000000000000000000000000\n        /* \"#utility.yul\":1089:1090   */\n      0x00\n        /* \"#utility.yul\":1082:1170   */\n      mstore\n        /* \"#utility.yul\":1189:1193   */\n      0x41\n        /* \"#utility.yul\":1186:1187   */\n      0x04\n        /* \"#utility.yul\":1179:1194   */\n      mstore\n        /* \"#utility.yul\":1213:1217   */\n      0x24\n        /* \"#utility.yul\":1210:1211   */\n      0x00\n        /* \"#utility.yul\":1203:1218   */\n      revert\n        /* \"#utility.yul\":1230:1511   */\n    tag_115:\n        /* \"#utility.yul\":1313:1340   */\n      tag_164\n        /* \"#utility.yul\":1335:1339   */\n      dup3\n        /* \"#utility.yul\":1313:1340   */\n      tag_113\n      jump\t// in\n    tag_164:\n        /* \"#utility.yul\":1305:1311   */\n      dup2\n        /* \"#utility.yul\":1301:1341   */\n      add\n        /* \"#utility.yul\":1443:1449   */\n      dup2\n        /* \"#utility.yul\":1431:1441   */\n      dup2\n        /* \"#utility.yul\":1428:1450   */\n      lt\n        /* \"#utility.yul\":1407:1425   */\n      0xffffffffffffffff\n        /* \"#utility.yul\":1395:1405   */\n      dup3\n        /* \"#utility.yul\":1392:1426   */\n      gt\n        /* \"#utility.yul\":1389:1451   */\n      or\n        /* \"#utility.yul\":1386:1474   */\n      iszero\n      tag_165\n      jumpi\n        /* \"#utility.yul\":1454:1472   */\n      tag_166\n      tag_114\n      jump\t// in\n    tag_166:\n        /* \"#utility.yul\":1386:1474   */\n    tag_165:\n        /* \"#utility.yul\":1494:1504   */\n      dup1\n        /* \"#utility.yul\":1490:1492   */\n      0x40\n        /* \"#utility.yul\":1483:1505   */\n      mstore\n        /* \"#utility.yul\":1273:1511   */\n      pop\n        /* \"#utility.yul\":1230:1511   */\n      pop\n      pop\n      jump\t// out\n        /* \"#utility.yul\":1517:1646   */\n    tag_116:\n        /* \"#utility.yul\":1551:1557   */\n      0x00\n        /* \"#utility.yul\":1578:1598   */\n      tag_168\n      tag_105\n      jump\t// in\n    tag_168:\n        /* \"#utility.yul\":1568:1598   */\n      swap1\n      pop\n        /* \"#utility.yul\":1607:1640   */\n      tag_169\n        /* \"#utility.yul\":1635:1639   */\n      dup3\n        /* \"#utility.yul\":1627:1633   */\n      dup3\n        /* \"#utility.yul\":1607:1640   */\n      tag_115\n      jump\t// in\n    tag_169:\n        /* \"#utility.yul\":1517:1646   */\n      swap2\n      swap1\n      pop\n      jump\t// out\n        /* \"#utility.yul\":1652:1960   */\n    tag_117:\n        /* \"#utility.yul\":1714:1718   */\n      0x00\n        /* \"#utility.yul\":1804:1822   */\n      0xffffffffffffffff\n        /* \"#utility.yul\":1796:1802   */\n      dup3\n        /* \"#utility.yul\":1793:1823   */\n      gt\n        /* \"#utility.yul\":1790:1846   */\n      iszero\n      tag_171\n      jumpi\n        /* \"#utility.yul\":1826:1844   */\n      tag_172\n      tag_114\n      jump\t// in\n    tag_172:\n        /* \"#utility.yul\":1790:1846   */\n    tag_171:\n        /* \"#utility.yul\":1864:1893   */\n      tag_173\n        /* \"#utility.yul\":1886:1892   */\n      dup3\n        /* \"#utility.yul\":1864:1893   */\n      tag_113\n      jump\t// in\n    tag_173:\n        /* \"#utility.yul\":1856:1893   */\n      swap1\n      pop\n        /* \"#utility.yul\":1948:1952   */\n      0x20\n        /* \"#utility.yul\":1942:1946   */\n      dup2\n        /* \"#utility.yul\":1938:1953   */\n      add\n        /* \"#utility.yul\":1930:1953   */\n      swap1\n      pop\n        /* \"#utility.yul\":1652:1960   */\n      swap2\n      swap1\n      pop\n      jump\t// out\n        /* \"#utility.yul\":1966:2112   */\n    tag_118:\n        /* \"#utility.yul\":2063:2069   */\n      dup3\n        /* \"#utility.yul\":2058:2061   */\n      dup2\n        /* \"#utility.yul\":2053:2056   */\n      dup4\n        /* \"#utility.yul\":2040:2070   */\n      calldatacopy\n        /* \"#utility.yul\":2104:2105   */\n      0x00\n        /* \"#utility.yul\":2095:2101   */\n      dup4\n        /* \"#utility.yul\":2090:2093   */\n      dup4\n        /* \"#utility.yul\":2086:2102   */\n      add\n        /* \"#utility.yul\":2079:2106   */\n      mstore\n        /* \"#utility.yul\":1966:2112   */\n      pop\n      pop\n      pop\n      jump\t// out\n        /* \"#utility.yul\":2118:2543   */\n    tag_119:\n        /* \"#utility.yul\":2196:2201   */\n      0x00\n        /* \"#utility.yul\":2221:2287   */\n      tag_176\n        /* \"#utility.yul\":2237:2286   */\n      tag_177\n        /* \"#utility.yul\":2279:2285   */\n      dup5\n        /* \"#utility.yul\":2237:2286   */\n      tag_117\n      jump\t// in\n    tag_177:\n        /* \"#utility.yul\":2221:2287   */\n      tag_116\n      jump\t// in\n    tag_176:\n        /* \"#utility.yul\":2212:2287   */\n      swap1\n      pop\n        /* \"#utility.yul\":2310:2316   */\n      dup3\n        /* \"#utility.yul\":2303:2308   */\n      dup2\n        /* \"#utility.yul\":2296:2317   */\n      mstore\n        /* \"#utility.yul\":2348:2352   */\n      0x20\n        /* \"#utility.yul\":2341:2346   */\n      dup2\n        /* \"#utility.yul\":2337:2353   */\n      add\n        /* \"#utility.yul\":2386:2389   */\n      dup5\n        /* \"#utility.yul\":2377:2383   */\n      dup5\n        /* \"#utility.yul\":2372:2375   */\n      dup5\n        /* \"#utility.yul\":2368:2384   */\n      add\n        /* \"#utility.yul\":2365:2390   */\n      gt\n        /* \"#utility.yul\":2362:2474   */\n      iszero\n      tag_178\n      jumpi\n        /* \"#utility.yul\":2393:2472   */\n      tag_179\n      tag_112\n      jump\t// in\n    tag_179:\n        /* \"#utility.yul\":2362:2474   */\n    tag_178:\n        /* \"#utility.yul\":2483:2537   */\n      tag_180\n        /* \"#utility.yul\":2530:2536   */\n      dup5\n        /* \"#utility.yul\":2525:2528   */\n      dup3\n        /* \"#utility.yul\":2520:2523   */\n      dup6\n        /* \"#utility.yul\":2483:2537   */\n      tag_118\n      jump\t// in\n    tag_180:\n        /* \"#utility.yul\":2202:2543   */\n      pop\n        /* \"#utility.yul\":2118:2543   */\n      swap4\n      swap3\n      pop\n      pop\n      pop\n      jump\t// out\n        /* \"#utility.yul\":2563:2903   */\n    tag_120:\n        /* \"#utility.yul\":2619:2624   */\n      0x00\n        /* \"#utility.yul\":2668:2671   */\n      dup3\n        /* \"#utility.yul\":2661:2665   */\n      0x1f\n        /* \"#utility.yul\":2653:2659   */\n      dup4\n        /* \"#utility.yul\":2649:2666   */\n      add\n        /* \"#utility.yul\":2645:2672   */\n      slt\n        /* \"#utility.yul\":2635:2757   */\n      tag_182\n      jumpi\n        /* \"#utility.yul\":2676:2755   */\n      tag_183\n      tag_111\n      jump\t// in\n    tag_183:\n        /* \"#utility.yul\":2635:2757   */\n    tag_182:\n        /* \"#utility.yul\":2793:2799   */\n      dup2\n        /* \"#utility.yul\":2780:2800   */\n      calldataload\n        /* \"#utility.yul\":2818:2897   */\n      tag_184\n        /* \"#utility.yul\":2893:2896   */\n      dup5\n        /* \"#utility.yul\":2885:2891   */\n      dup3\n        /* \"#utility.yul\":2878:2882   */\n      0x20\n        /* \"#utility.yul\":2870:2876   */\n      dup7\n        /* \"#utility.yul\":2866:2883   */\n      add\n        /* \"#utility.yul\":2818:2897   */\n      tag_119\n      jump\t// in\n    tag_184:\n        /* \"#utility.yul\":2809:2897   */\n      swap2\n      pop\n        /* \"#utility.yul\":2625:2903   */\n      pop\n        /* \"#utility.yul\":2563:2903   */\n      swap3\n      swap2\n      pop\n      pop\n      jump\t// out\n        /* \"#utility.yul\":2909:3058   */\n    tag_121:\n        /* \"#utility.yul\":2945:2952   */\n      0x00\n        /* \"#utility.yul\":2985:3051   */\n      0xffff000000000000000000000000000000000000000000000000000000000000\n        /* \"#utility.yul\":2978:2983   */\n      dup3\n        /* \"#utility.yul\":2974:3052   */\n      and\n        /* \"#utility.yul\":2963:3052   */\n      swap1\n      pop\n        /* \"#utility.yul\":2909:3058   */\n      swap2\n      swap1\n      pop\n      jump\t// out\n        /* \"#utility.yul\":3064:3184   */\n    tag_122:\n        /* \"#utility.yul\":3136:3159   */\n      tag_187\n        /* \"#utility.yul\":3153:3158   */\n      dup2\n        /* \"#utility.yul\":3136:3159   */\n      tag_121\n      jump\t// in\n    tag_187:\n        /* \"#utility.yul\":3129:3134   */\n      dup2\n        /* \"#utility.yul\":3126:3160   */\n      eq\n        /* \"#utility.yul\":3116:3178   */\n      tag_188\n      jumpi\n        /* \"#utility.yul\":3174:3175   */\n      0x00\n        /* \"#utility.yul\":3171:3172   */\n      dup1\n        /* \"#utility.yul\":3164:3176   */\n      revert\n        /* \"#utility.yul\":3116:3178   */\n    tag_188:\n        /* \"#utility.yul\":3064:3184   */\n      pop\n      jump\t// out\n        /* \"#utility.yul\":3190:3327   */\n    tag_123:\n        /* \"#utility.yul\":3235:3240   */\n      0x00\n        /* \"#utility.yul\":3273:3279   */\n      dup2\n        /* \"#utility.yul\":3260:3280   */\n      calldataload\n        /* \"#utility.yul\":3251:3280   */\n      swap1\n      pop\n        /* \"#utility.yul\":3289:3321   */\n      tag_190\n        /* \"#utility.yul\":3315:3320   */\n      dup2\n        /* \"#utility.yul\":3289:3321   */\n      tag_122\n      jump\t// in\n    tag_190:\n        /* \"#utility.yul\":3190:3327   */\n      swap3\n      swap2\n      pop\n      pop\n      jump\t// out\n        /* \"#utility.yul\":3333:4130   */\n    tag_17:\n        /* \"#utility.yul\":3419:3425   */\n      0x00\n        /* \"#utility.yul\":3427:3433   */\n      dup1\n        /* \"#utility.yul\":3435:3441   */\n      0x00\n        /* \"#utility.yul\":3484:3486   */\n      0x60\n        /* \"#utility.yul\":3472:3481   */\n      dup5\n        /* \"#utility.yul\":3463:3470   */\n      dup7\n        /* \"#utility.yul\":3459:3482   */\n      sub\n        /* \"#utility.yul\":3455:3487   */\n      slt\n        /* \"#utility.yul\":3452:3571   */\n      iszero\n      tag_192\n      jumpi\n        /* \"#utility.yul\":3490:3569   */\n      tag_193\n      tag_106\n      jump\t// in\n    tag_193:\n        /* \"#utility.yul\":3452:3571   */\n    tag_192:\n        /* \"#utility.yul\":3610:3611   */\n      0x00\n        /* \"#utility.yul\":3635:3688   */\n      tag_194\n        /* \"#utility.yul\":3680:3687   */\n      dup7\n        /* \"#utility.yul\":3671:3677   */\n      dup3\n        /* \"#utility.yul\":3660:3669   */\n      dup8\n        /* \"#utility.yul\":3656:3678   */\n      add\n        /* \"#utility.yul\":3635:3688   */\n      tag_110\n      jump\t// in\n    tag_194:\n        /* \"#utility.yul\":3625:3688   */\n      swap4\n      pop\n        /* \"#utility.yul\":3581:3698   */\n      pop\n        /* \"#utility.yul\":3765:3767   */\n      0x20\n        /* \"#utility.yul\":3754:3763   */\n      dup5\n        /* \"#utility.yul\":3750:3768   */\n      add\n        /* \"#utility.yul\":3737:3769   */\n      calldataload\n        /* \"#utility.yul\":3796:3814   */\n      0xffffffffffffffff\n        /* \"#utility.yul\":3788:3794   */\n      dup2\n        /* \"#utility.yul\":3785:3815   */\n      gt\n        /* \"#utility.yul\":3782:3899   */\n      iszero\n      tag_195\n      jumpi\n        /* \"#utility.yul\":3818:3897   */\n      tag_196\n      tag_107\n      jump\t// in\n    tag_196:\n        /* \"#utility.yul\":3782:3899   */\n    tag_195:\n        /* \"#utility.yul\":3923:3986   */\n      tag_197\n        /* \"#utility.yul\":3978:3985   */\n      dup7\n        /* \"#utility.yul\":3969:3975   */\n      dup3\n        /* \"#utility.yul\":3958:3967   */\n      dup8\n        /* \"#utility.yul\":3954:3976   */\n      add\n        /* \"#utility.yul\":3923:3986   */\n      tag_120\n      jump\t// in\n    tag_197:\n        /* \"#utility.yul\":3913:3986   */\n      swap3\n      pop\n        /* \"#utility.yul\":3708:3996   */\n      pop\n        /* \"#utility.yul\":4035:4037   */\n      0x40\n        /* \"#utility.yul\":4061:4113   */\n      tag_198\n        /* \"#utility.yul\":4105:4112   */\n      dup7\n        /* \"#utility.yul\":4096:4102   */\n      dup3\n        /* \"#utility.yul\":4085:4094   */\n      dup8\n        /* \"#utility.yul\":4081:4103   */\n      add\n        /* \"#utility.yul\":4061:4113   */\n      tag_123\n      jump\t// in\n    tag_198:\n        /* \"#utility.yul\":4051:4113   */\n      swap2\n      pop\n        /* \"#utility.yul\":4006:4123   */\n      pop\n        /* \"#utility.yul\":3333:4130   */\n      swap3\n      pop\n      swap3\n      pop\n      swap3\n      jump\t// out\n        /* \"#utility.yul\":4136:4935   */\n    tag_24:\n        /* \"#utility.yul\":4223:4229   */\n      0x00\n        /* \"#utility.yul\":4231:4237   */\n      dup1\n        /* \"#utility.yul\":4239:4245   */\n      0x00\n        /* \"#utility.yul\":4288:4290   */\n      0x60\n        /* \"#utility.yul\":4276:4285   */\n      dup5\n        /* \"#utility.yul\":4267:4274   */\n      dup7\n        /* \"#utility.yul\":4263:4286   */\n      sub\n        /* \"#utility.yul\":4259:4291   */\n      slt\n        /* \"#utility.yul\":4256:4375   */\n      iszero\n      tag_200\n      jumpi\n        /* \"#utility.yul\":4294:4373   */\n      tag_201\n      tag_106\n      jump\t// in\n    tag_201:\n        /* \"#utility.yul\":4256:4375   */\n    tag_200:\n        /* \"#utility.yul\":4442:4443   */\n      0x00\n        /* \"#utility.yul\":4431:4440   */\n      dup5\n        /* \"#utility.yul\":4427:4444   */\n      add\n        /* \"#utility.yul\":4414:4445   */\n      calldataload\n        /* \"#utility.yul\":4472:4490   */\n      0xffffffffffffffff\n        /* \"#utility.yul\":4464:4470   */\n      dup2\n        /* \"#utility.yul\":4461:4491   */\n      gt\n        /* \"#utility.yul\":4458:4575   */\n      iszero\n      tag_202\n      jumpi\n        /* \"#utility.yul\":4494:4573   */\n      tag_203\n      tag_107\n      jump\t// in\n    tag_203:\n        /* \"#utility.yul\":4458:4575   */\n    tag_202:\n        /* \"#utility.yul\":4599:4662   */\n      tag_204\n        /* \"#utility.yul\":4654:4661   */\n      dup7\n        /* \"#utility.yul\":4645:4651   */\n      dup3\n        /* \"#utility.yul\":4634:4643   */\n      dup8\n        /* \"#utility.yul\":4630:4652   */\n      add\n        /* \"#utility.yul\":4599:4662   */\n      tag_120\n      jump\t// in\n    tag_204:\n        /* \"#utility.yul\":4589:4662   */\n      swap4\n      pop\n        /* \"#utility.yul\":4385:4672   */\n      pop\n        /* \"#utility.yul\":4711:4713   */\n      0x20\n        /* \"#utility.yul\":4737:4790   */\n      tag_205\n        /* \"#utility.yul\":4782:4789   */\n      dup7\n        /* \"#utility.yul\":4773:4779   */\n      dup3\n        /* \"#utility.yul\":4762:4771   */\n      dup8\n        /* \"#utility.yul\":4758:4780   */\n      add\n        /* \"#utility.yul\":4737:4790   */\n      tag_110\n      jump\t// in\n    tag_205:\n        /* \"#utility.yul\":4727:4790   */\n      swap3\n      pop\n        /* \"#utility.yul\":4682:4800   */\n      pop\n        /* \"#utility.yul\":4839:4841   */\n      0x40\n        /* \"#utility.yul\":4865:4918   */\n      tag_206\n        /* \"#utility.yul\":4910:4917   */\n      dup7\n        /* \"#utility.yul\":4901:4907   */\n      dup3\n        /* \"#utility.yul\":4890:4899   */\n      dup8\n        /* \"#utility.yul\":4886:4908   */\n      add\n        /* \"#utility.yul\":4865:4918   */\n      tag_110\n      jump\t// in\n    tag_206:\n        /* \"#utility.yul\":4855:4918   */\n      swap2\n      pop\n        /* \"#utility.yul\":4810:4928   */\n      pop\n        /* \"#utility.yul\":4136:4935   */\n      swap3\n      pop\n      swap3\n      pop\n      swap3\n      jump\t// out\n        /* \"#utility.yul\":4941:5040   */\n    tag_124:\n        /* \"#utility.yul\":4993:4999   */\n      0x00\n        /* \"#utility.yul\":5027:5032   */\n      dup2\n        /* \"#utility.yul\":5021:5033   */\n      mload\n        /* \"#utility.yul\":5011:5033   */\n      swap1\n      pop\n        /* \"#utility.yul\":4941:5040   */\n      swap2\n      swap1\n      pop\n      jump\t// out\n        /* \"#utility.yul\":5046:5205   */\n    tag_125:\n        /* \"#utility.yul\":5120:5131   */\n      0x00\n        /* \"#utility.yul\":5154:5160   */\n      dup3\n        /* \"#utility.yul\":5149:5152   */\n      dup3\n        /* \"#utility.yul\":5142:5161   */\n      mstore\n        /* \"#utility.yul\":5194:5198   */\n      0x20\n        /* \"#utility.yul\":5189:5192   */\n      dup3\n        /* \"#utility.yul\":5185:5199   */\n      add\n        /* \"#utility.yul\":5170:5199   */\n      swap1\n      pop\n        /* \"#utility.yul\":5046:5205   */\n      swap3\n      swap2\n      pop\n      pop\n      jump\t// out\n        /* \"#utility.yul\":5211:5457   */\n    tag_126:\n        /* \"#utility.yul\":5292:5293   */\n      0x00\n        /* \"#utility.yul\":5302:5415   */\n    tag_210:\n        /* \"#utility.yul\":5316:5322   */\n      dup4\n        /* \"#utility.yul\":5313:5314   */\n      dup2\n        /* \"#utility.yul\":5310:5323   */\n      lt\n        /* \"#utility.yul\":5302:5415   */\n      iszero\n      tag_212\n      jumpi\n        /* \"#utility.yul\":5401:5402   */\n      dup1\n        /* \"#utility.yul\":5396:5399   */\n      dup3\n        /* \"#utility.yul\":5392:5403   */\n      add\n        /* \"#utility.yul\":5386:5404   */\n      mload\n        /* \"#utility.yul\":5382:5383   */\n      dup2\n        /* \"#utility.yul\":5377:5380   */\n      dup5\n        /* \"#utility.yul\":5373:5384   */\n      add\n        /* \"#utility.yul\":5366:5405   */\n      mstore\n        /* \"#utility.yul\":5338:5340   */\n      0x20\n        /* \"#utility.yul\":5335:5336   */\n      dup2\n        /* \"#utility.yul\":5331:5341   */\n      add\n        /* \"#utility.yul\":5326:5341   */\n      swap1\n      pop\n        /* \"#utility.yul\":5302:5415   */\n      jump(tag_210)\n    tag_212:\n        /* \"#utility.yul\":5449:5450   */\n      0x00\n        /* \"#utility.yul\":5440:5446   */\n      dup5\n        /* \"#utility.yul\":5435:5438   */\n      dup5\n        /* \"#utility.yul\":5431:5447   */\n      add\n        /* \"#utility.yul\":5424:5451   */\n      mstore\n        /* \"#utility.yul\":5273:5457   */\n      pop\n        /* \"#utility.yul\":5211:5457   */\n      pop\n      pop\n      pop\n      jump\t// out\n        /* \"#utility.yul\":5463:5820   */\n    tag_127:\n        /* \"#utility.yul\":5541:5544   */\n      0x00\n        /* \"#utility.yul\":5569:5608   */\n      tag_214\n        /* \"#utility.yul\":5602:5607   */\n      dup3\n        /* \"#utility.yul\":5569:5608   */\n      tag_124\n      jump\t// in\n    tag_214:\n        /* \"#utility.yul\":5624:5685   */\n      tag_215\n        /* \"#utility.yul\":5678:5684   */\n      dup2\n        /* \"#utility.yul\":5673:5676   */\n      dup6\n        /* \"#utility.yul\":5624:5685   */\n      tag_125\n      jump\t// in\n    tag_215:\n        /* \"#utility.yul\":5617:5685   */\n      swap4\n      pop\n        /* \"#utility.yul\":5694:5759   */\n      tag_216\n        /* \"#utility.yul\":5752:5758   */\n      dup2\n        /* \"#utility.yul\":5747:5750   */\n      dup6\n        /* \"#utility.yul\":5740:5744   */\n      0x20\n        /* \"#utility.yul\":5733:5738   */\n      dup7\n        /* \"#utility.yul\":5729:5745   */\n      add\n        /* \"#utility.yul\":5694:5759   */\n      tag_126\n      jump\t// in\n    tag_216:\n        /* \"#utility.yul\":5784:5813   */\n      tag_217\n        /* \"#utility.yul\":5806:5812   */\n      dup2\n        /* \"#utility.yul\":5784:5813   */\n      tag_113\n      jump\t// in\n    tag_217:\n        /* \"#utility.yul\":5779:5782   */\n      dup5\n        /* \"#utility.yul\":5775:5814   */\n      add\n        /* \"#utility.yul\":5768:5814   */\n      swap2\n      pop\n        /* \"#utility.yul\":5545:5820   */\n      pop\n        /* \"#utility.yul\":5463:5820   */\n      swap3\n      swap2\n      pop\n      pop\n      jump\t// out\n        /* \"#utility.yul\":5826:5934   */\n    tag_128:\n        /* \"#utility.yul\":5903:5927   */\n      tag_219\n        /* \"#utility.yul\":5921:5926   */\n      dup2\n        /* \"#utility.yul\":5903:5927   */\n      tag_108\n      jump\t// in\n    tag_219:\n        /* \"#utility.yul\":5898:5901   */\n      dup3\n        /* \"#utility.yul\":5891:5928   */\n      mstore\n        /* \"#utility.yul\":5826:5934   */\n      pop\n      pop\n      jump\t// out\n        /* \"#utility.yul\":6006:6783   */\n    tag_129:\n        /* \"#utility.yul\":6117:6120   */\n      0x00\n        /* \"#utility.yul\":6153:6157   */\n      0x60\n        /* \"#utility.yul\":6148:6151   */\n      dup4\n        /* \"#utility.yul\":6144:6158   */\n      add\n        /* \"#utility.yul\":6243:6247   */\n      0x00\n        /* \"#utility.yul\":6236:6241   */\n      dup4\n        /* \"#utility.yul\":6232:6248   */\n      add\n        /* \"#utility.yul\":6226:6249   */\n      mload\n        /* \"#utility.yul\":6296:6299   */\n      dup5\n        /* \"#utility.yul\":6290:6294   */\n      dup3\n        /* \"#utility.yul\":6286:6300   */\n      sub\n        /* \"#utility.yul\":6279:6283   */\n      0x00\n        /* \"#utility.yul\":6274:6277   */\n      dup7\n        /* \"#utility.yul\":6270:6284   */\n      add\n        /* \"#utility.yul\":6263:6301   */\n      mstore\n        /* \"#utility.yul\":6322:6395   */\n      tag_221\n        /* \"#utility.yul\":6390:6394   */\n      dup3\n        /* \"#utility.yul\":6376:6388   */\n      dup3\n        /* \"#utility.yul\":6322:6395   */\n      tag_127\n      jump\t// in\n    tag_221:\n        /* \"#utility.yul\":6314:6395   */\n      swap2\n      pop\n        /* \"#utility.yul\":6168:6406   */\n      pop\n        /* \"#utility.yul\":6490:6494   */\n      0x20\n        /* \"#utility.yul\":6483:6488   */\n      dup4\n        /* \"#utility.yul\":6479:6495   */\n      add\n        /* \"#utility.yul\":6473:6496   */\n      mload\n        /* \"#utility.yul\":6509:6572   */\n      tag_222\n        /* \"#utility.yul\":6566:6570   */\n      0x20\n        /* \"#utility.yul\":6561:6564   */\n      dup7\n        /* \"#utility.yul\":6557:6571   */\n      add\n        /* \"#utility.yul\":6543:6555   */\n      dup3\n        /* \"#utility.yul\":6509:6572   */\n      tag_128\n      jump\t// in\n    tag_222:\n        /* \"#utility.yul\":6416:6582   */\n      pop\n        /* \"#utility.yul\":6664:6668   */\n      0x40\n        /* \"#utility.yul\":6657:6662   */\n      dup4\n        /* \"#utility.yul\":6653:6669   */\n      add\n        /* \"#utility.yul\":6647:6670   */\n      mload\n        /* \"#utility.yul\":6683:6746   */\n      tag_223\n        /* \"#utility.yul\":6740:6744   */\n      0x40\n        /* \"#utility.yul\":6735:6738   */\n      dup7\n        /* \"#utility.yul\":6731:6745   */\n      add\n        /* \"#utility.yul\":6717:6729   */\n      dup3\n        /* \"#utility.yul\":6683:6746   */\n      tag_128\n      jump\t// in\n    tag_223:\n        /* \"#utility.yul\":6592:6756   */\n      pop\n        /* \"#utility.yul\":6773:6777   */\n      dup1\n        /* \"#utility.yul\":6766:6777   */\n      swap2\n      pop\n        /* \"#utility.yul\":6122:6783   */\n      pop\n        /* \"#utility.yul\":6006:6783   */\n      swap3\n      swap2\n      pop\n      pop\n      jump\t// out\n        /* \"#utility.yul\":6789:7146   */\n    tag_35:\n        /* \"#utility.yul\":6924:6928   */\n      0x00\n        /* \"#utility.yul\":6962:6964   */\n      0x20\n        /* \"#utility.yul\":6951:6960   */\n      dup3\n        /* \"#utility.yul\":6947:6965   */\n      add\n        /* \"#utility.yul\":6939:6965   */\n      swap1\n      pop\n        /* \"#utility.yul\":7011:7020   */\n      dup2\n        /* \"#utility.yul\":7005:7009   */\n      dup2\n        /* \"#utility.yul\":7001:7021   */\n      sub\n        /* \"#utility.yul\":6997:6998   */\n      0x00\n        /* \"#utility.yul\":6986:6995   */\n      dup4\n        /* \"#utility.yul\":6982:6999   */\n      add\n        /* \"#utility.yul\":6975:7022   */\n      mstore\n        /* \"#utility.yul\":7039:7139   */\n      tag_225\n        /* \"#utility.yul\":7134:7138   */\n      dup2\n        /* \"#utility.yul\":7125:7131   */\n      dup5\n        /* \"#utility.yul\":7039:7139   */\n      tag_129\n      jump\t// in\n    tag_225:\n        /* \"#utility.yul\":7031:7139   */\n      swap1\n      pop\n        /* \"#utility.yul\":6789:7146   */\n      swap3\n      swap2\n      pop\n      pop\n      jump\t// out\n        /* \"#utility.yul\":7152:7481   */\n    tag_38:\n        /* \"#utility.yul\":7211:7217   */\n      0x00\n        /* \"#utility.yul\":7260:7262   */\n      0x20\n        /* \"#utility.yul\":7248:7257   */\n      dup3\n        /* \"#utility.yul\":7239:7246   */\n      dup5\n        /* \"#utility.yul\":7235:7258   */\n      sub\n        /* \"#utility.yul\":7231:7263   */\n      slt\n        /* \"#utility.yul\":7228:7347   */\n      iszero\n      tag_227\n      jumpi\n        /* \"#utility.yul\":7266:7345   */\n      tag_228\n      tag_106\n      jump\t// in\n    tag_228:\n        /* \"#utility.yul\":7228:7347   */\n    tag_227:\n        /* \"#utility.yul\":7386:7387   */\n      0x00\n        /* \"#utility.yul\":7411:7464   */\n      tag_229\n        /* \"#utility.yul\":7456:7463   */\n      dup5\n        /* \"#utility.yul\":7447:7453   */\n      dup3\n        /* \"#utility.yul\":7436:7445   */\n      dup6\n        /* \"#utility.yul\":7432:7454   */\n      add\n        /* \"#utility.yul\":7411:7464   */\n      tag_110\n      jump\t// in\n    tag_229:\n        /* \"#utility.yul\":7401:7464   */\n      swap2\n      pop\n        /* \"#utility.yul\":7357:7474   */\n      pop\n        /* \"#utility.yul\":7152:7481   */\n      swap3\n      swap2\n      pop\n      pop\n      jump\t// out\n        /* \"#utility.yul\":7487:7592   */\n    tag_130:\n        /* \"#utility.yul\":7562:7585   */\n      tag_231\n        /* \"#utility.yul\":7579:7584   */\n      dup2\n        /* \"#utility.yul\":7562:7585   */\n      tag_121\n      jump\t// in\n    tag_231:\n        /* \"#utility.yul\":7557:7560   */\n      dup3\n        /* \"#utility.yul\":7550:7586   */\n      mstore\n        /* \"#utility.yul\":7487:7592   */\n      pop\n      pop\n      jump\t// out\n        /* \"#utility.yul\":7666:8446   */\n    tag_131:\n        /* \"#utility.yul\":7781:7784   */\n      0x00\n        /* \"#utility.yul\":7817:7821   */\n      0x60\n        /* \"#utility.yul\":7812:7815   */\n      dup4\n        /* \"#utility.yul\":7808:7822   */\n      add\n        /* \"#utility.yul\":7906:7910   */\n      0x00\n        /* \"#utility.yul\":7899:7904   */\n      dup4\n        /* \"#utility.yul\":7895:7911   */\n      add\n        /* \"#utility.yul\":7889:7912   */\n      mload\n        /* \"#utility.yul\":7925:7988   */\n      tag_233\n        /* \"#utility.yul\":7982:7986   */\n      0x00\n        /* \"#utility.yul\":7977:7980   */\n      dup7\n        /* \"#utility.yul\":7973:7987   */\n      add\n        /* \"#utility.yul\":7959:7971   */\n      dup3\n        /* \"#utility.yul\":7925:7988   */\n      tag_128\n      jump\t// in\n    tag_233:\n        /* \"#utility.yul\":7832:7998   */\n      pop\n        /* \"#utility.yul\":8080:8084   */\n      0x20\n        /* \"#utility.yul\":8073:8078   */\n      dup4\n        /* \"#utility.yul\":8069:8085   */\n      add\n        /* \"#utility.yul\":8063:8086   */\n      mload\n        /* \"#utility.yul\":8133:8136   */\n      dup5\n        /* \"#utility.yul\":8127:8131   */\n      dup3\n        /* \"#utility.yul\":8123:8137   */\n      sub\n        /* \"#utility.yul\":8116:8120   */\n      0x20\n        /* \"#utility.yul\":8111:8114   */\n      dup7\n        /* \"#utility.yul\":8107:8121   */\n      add\n        /* \"#utility.yul\":8100:8138   */\n      mstore\n        /* \"#utility.yul\":8159:8232   */\n      tag_234\n        /* \"#utility.yul\":8227:8231   */\n      dup3\n        /* \"#utility.yul\":8213:8225   */\n      dup3\n        /* \"#utility.yul\":8159:8232   */\n      tag_127\n      jump\t// in\n    tag_234:\n        /* \"#utility.yul\":8151:8232   */\n      swap2\n      pop\n        /* \"#utility.yul\":8008:8243   */\n      pop\n        /* \"#utility.yul\":8329:8333   */\n      0x40\n        /* \"#utility.yul\":8322:8327   */\n      dup4\n        /* \"#utility.yul\":8318:8334   */\n      add\n        /* \"#utility.yul\":8312:8335   */\n      mload\n        /* \"#utility.yul\":8348:8409   */\n      tag_235\n        /* \"#utility.yul\":8403:8407   */\n      0x40\n        /* \"#utility.yul\":8398:8401   */\n      dup7\n        /* \"#utility.yul\":8394:8408   */\n      add\n        /* \"#utility.yul\":8380:8392   */\n      dup3\n        /* \"#utility.yul\":8348:8409   */\n      tag_130\n      jump\t// in\n    tag_235:\n        /* \"#utility.yul\":8253:8419   */\n      pop\n        /* \"#utility.yul\":8436:8440   */\n      dup1\n        /* \"#utility.yul\":8429:8440   */\n      swap2\n      pop\n        /* \"#utility.yul\":7786:8446   */\n      pop\n        /* \"#utility.yul\":7666:8446   */\n      swap3\n      swap2\n      pop\n      pop\n      jump\t// out\n        /* \"#utility.yul\":8452:8817   */\n    tag_41:\n        /* \"#utility.yul\":8591:8595   */\n      0x00\n        /* \"#utility.yul\":8629:8631   */\n      0x20\n        /* \"#utility.yul\":8618:8627   */\n      dup3\n        /* \"#utility.yul\":8614:8632   */\n      add\n        /* \"#utility.yul\":8606:8632   */\n      swap1\n      pop\n        /* \"#utility.yul\":8678:8687   */\n      dup2\n        /* \"#utility.yul\":8672:8676   */\n      dup2\n        /* \"#utility.yul\":8668:8688   */\n      sub\n        /* \"#utility.yul\":8664:8665   */\n      0x00\n        /* \"#utility.yul\":8653:8662   */\n      dup4\n        /* \"#utility.yul\":8649:8666   */\n      add\n        /* \"#utility.yul\":8642:8689   */\n      mstore\n        /* \"#utility.yul\":8706:8810   */\n      tag_237\n        /* \"#utility.yul\":8805:8809   */\n      dup2\n        /* \"#utility.yul\":8796:8802   */\n      dup5\n        /* \"#utility.yul\":8706:8810   */\n      tag_131\n      jump\t// in\n    tag_237:\n        /* \"#utility.yul\":8698:8810   */\n      swap1\n      pop\n        /* \"#utility.yul\":8452:8817   */\n      swap3\n      swap2\n      pop\n      pop\n      jump\t// out\n        /* \"#utility.yul\":8893:9670   */\n    tag_132:\n        /* \"#utility.yul\":9006:9009   */\n      0x00\n        /* \"#utility.yul\":9042:9046   */\n      0x60\n        /* \"#utility.yul\":9037:9040   */\n      dup4\n        /* \"#utility.yul\":9033:9047   */\n      add\n        /* \"#utility.yul\":9129:9133   */\n      0x00\n        /* \"#utility.yul\":9122:9127   */\n      dup4\n        /* \"#utility.yul\":9118:9134   */\n      add\n        /* \"#utility.yul\":9112:9135   */\n      mload\n        /* \"#utility.yul\":9182:9185   */\n      dup5\n        /* \"#utility.yul\":9176:9180   */\n      dup3\n        /* \"#utility.yul\":9172:9186   */\n      sub\n        /* \"#utility.yul\":9165:9169   */\n      0x00\n        /* \"#utility.yul\":9160:9163   */\n      dup7\n        /* \"#utility.yul\":9156:9170   */\n      add\n        /* \"#utility.yul\":9149:9187   */\n      mstore\n        /* \"#utility.yul\":9208:9281   */\n      tag_239\n        /* \"#utility.yul\":9276:9280   */\n      dup3\n        /* \"#utility.yul\":9262:9274   */\n      dup3\n        /* \"#utility.yul\":9208:9281   */\n      tag_127\n      jump\t// in\n    tag_239:\n        /* \"#utility.yul\":9200:9281   */\n      swap2\n      pop\n        /* \"#utility.yul\":9057:9292   */\n      pop\n        /* \"#utility.yul\":9376:9380   */\n      0x20\n        /* \"#utility.yul\":9369:9374   */\n      dup4\n        /* \"#utility.yul\":9365:9381   */\n      add\n        /* \"#utility.yul\":9359:9382   */\n      mload\n        /* \"#utility.yul\":9395:9458   */\n      tag_240\n        /* \"#utility.yul\":9452:9456   */\n      0x20\n        /* \"#utility.yul\":9447:9450   */\n      dup7\n        /* \"#utility.yul\":9443:9457   */\n      add\n        /* \"#utility.yul\":9429:9441   */\n      dup3\n        /* \"#utility.yul\":9395:9458   */\n      tag_128\n      jump\t// in\n    tag_240:\n        /* \"#utility.yul\":9302:9468   */\n      pop\n        /* \"#utility.yul\":9551:9555   */\n      0x40\n        /* \"#utility.yul\":9544:9549   */\n      dup4\n        /* \"#utility.yul\":9540:9556   */\n      add\n        /* \"#utility.yul\":9534:9557   */\n      mload\n        /* \"#utility.yul\":9570:9633   */\n      tag_241\n        /* \"#utility.yul\":9627:9631   */\n      0x40\n        /* \"#utility.yul\":9622:9625   */\n      dup7\n        /* \"#utility.yul\":9618:9632   */\n      add\n        /* \"#utility.yul\":9604:9616   */\n      dup3\n        /* \"#utility.yul\":9570:9633   */\n      tag_128\n      jump\t// in\n    tag_241:\n        /* \"#utility.yul\":9478:9643   */\n      pop\n        /* \"#utility.yul\":9660:9664   */\n      dup1\n        /* \"#utility.yul\":9653:9664   */\n      swap2\n      pop\n        /* \"#utility.yul\":9011:9670   */\n      pop\n        /* \"#utility.yul\":8893:9670   */\n      swap3\n      swap2\n      pop\n      pop\n      jump\t// out\n        /* \"#utility.yul\":9676:10037   */\n    tag_48:\n        /* \"#utility.yul\":9813:9817   */\n      0x00\n        /* \"#utility.yul\":9851:9853   */\n      0x20\n        /* \"#utility.yul\":9840:9849   */\n      dup3\n        /* \"#utility.yul\":9836:9854   */\n      add\n        /* \"#utility.yul\":9828:9854   */\n      swap1\n      pop\n        /* \"#utility.yul\":9900:9909   */\n      dup2\n        /* \"#utility.yul\":9894:9898   */\n      dup2\n        /* \"#utility.yul\":9890:9910   */\n      sub\n        /* \"#utility.yul\":9886:9887   */\n      0x00\n        /* \"#utility.yul\":9875:9884   */\n      dup4\n        /* \"#utility.yul\":9871:9888   */\n      add\n        /* \"#utility.yul\":9864:9911   */\n      mstore\n        /* \"#utility.yul\":9928:10030   */\n      tag_243\n        /* \"#utility.yul\":10025:10029   */\n      dup2\n        /* \"#utility.yul\":10016:10022   */\n      dup5\n        /* \"#utility.yul\":9928:10030   */\n      tag_132\n      jump\t// in\n    tag_243:\n        /* \"#utility.yul\":9920:10030   */\n      swap1\n      pop\n        /* \"#utility.yul\":9676:10037   */\n      swap3\n      swap2\n      pop\n      pop\n      jump\t// out\n        /* \"#utility.yul\":10043:10223   */\n    tag_133:\n        /* \"#utility.yul\":10091:10168   */\n      0x4e487b7100000000000000000000000000000000000000000000000000000000\n        /* \"#utility.yul\":10088:10089   */\n      0x00\n        /* \"#utility.yul\":10081:10169   */\n      mstore\n        /* \"#utility.yul\":10188:10192   */\n      0x22\n        /* \"#utility.yul\":10185:10186   */\n      0x04\n        /* \"#utility.yul\":10178:10193   */\n      mstore\n        /* \"#utility.yul\":10212:10216   */\n      0x24\n        /* \"#utility.yul\":10209:10210   */\n      0x00\n        /* \"#utility.yul\":10202:10217   */\n      revert\n        /* \"#utility.yul\":10229:10549   */\n    tag_72:\n        /* \"#utility.yul\":10273:10279   */\n      0x00\n        /* \"#utility.yul\":10310:10311   */\n      0x02\n        /* \"#utility.yul\":10304:10308   */\n      dup3\n        /* \"#utility.yul\":10300:10312   */\n      div\n        /* \"#utility.yul\":10290:10312   */\n      swap1\n      pop\n        /* \"#utility.yul\":10357:10358   */\n      0x01\n        /* \"#utility.yul\":10351:10355   */\n      dup3\n        /* \"#utility.yul\":10347:10359   */\n      and\n        /* \"#utility.yul\":10378:10396   */\n      dup1\n        /* \"#utility.yul\":10368:10449   */\n      tag_246\n      jumpi\n        /* \"#utility.yul\":10434:10438   */\n      0x7f\n        /* \"#utility.yul\":10426:10432   */\n      dup3\n        /* \"#utility.yul\":10422:10439   */\n      and\n        /* \"#utility.yul\":10412:10439   */\n      swap2\n      pop\n        /* \"#utility.yul\":10368:10449   */\n    tag_246:\n        /* \"#utility.yul\":10496:10498   */\n      0x20\n        /* \"#utility.yul\":10488:10494   */\n      dup3\n        /* \"#utility.yul\":10485:10499   */\n      lt\n        /* \"#utility.yul\":10465:10483   */\n      dup2\n        /* \"#utility.yul\":10462:10500   */\n      sub\n        /* \"#utility.yul\":10459:10543   */\n      tag_247\n      jumpi\n        /* \"#utility.yul\":10515:10533   */\n      tag_248\n      tag_133\n      jump\t// in\n    tag_248:\n        /* \"#utility.yul\":10459:10543   */\n    tag_247:\n        /* \"#utility.yul\":10280:10549   */\n      pop\n        /* \"#utility.yul\":10229:10549   */\n      swap2\n      swap1\n      pop\n      jump\t// out\n        /* \"#utility.yul\":10555:10696   */\n    tag_134:\n        /* \"#utility.yul\":10604:10608   */\n      0x00\n        /* \"#utility.yul\":10627:10630   */\n      dup2\n        /* \"#utility.yul\":10619:10630   */\n      swap1\n      pop\n        /* \"#utility.yul\":10650:10653   */\n      dup2\n        /* \"#utility.yul\":10647:10648   */\n      0x00\n        /* \"#utility.yul\":10640:10654   */\n      mstore\n        /* \"#utility.yul\":10684:10688   */\n      0x20\n        /* \"#utility.yul\":10681:10682   */\n      0x00\n        /* \"#utility.yul\":10671:10689   */\n      keccak256\n        /* \"#utility.yul\":10663:10689   */\n      swap1\n      pop\n        /* \"#utility.yul\":10555:10696   */\n      swap2\n      swap1\n      pop\n      jump\t// out\n        /* \"#utility.yul\":10702:10795   */\n    tag_135:\n        /* \"#utility.yul\":10739:10745   */\n      0x00\n        /* \"#utility.yul\":10786:10788   */\n      0x20\n        /* \"#utility.yul\":10781:10783   */\n      0x1f\n        /* \"#utility.yul\":10774:10779   */\n      dup4\n        /* \"#utility.yul\":10770:10784   */\n      add\n        /* \"#utility.yul\":10766:10789   */\n      div\n        /* \"#utility.yul\":10756:10789   */\n      swap1\n      pop\n        /* \"#utility.yul\":10702:10795   */\n      swap2\n      swap1\n      pop\n      jump\t// out\n        /* \"#utility.yul\":10801:10908   */\n    tag_136:\n        /* \"#utility.yul\":10845:10853   */\n      0x00\n        /* \"#utility.yul\":10895:10900   */\n      dup3\n        /* \"#utility.yul\":10889:10893   */\n      dup3\n        /* \"#utility.yul\":10885:10901   */\n      shl\n        /* \"#utility.yul\":10864:10901   */\n      swap1\n      pop\n        /* \"#utility.yul\":10801:10908   */\n      swap3\n      swap2\n      pop\n      pop\n      jump\t// out\n        /* \"#utility.yul\":10914:11307   */\n    tag_137:\n        /* \"#utility.yul\":10983:10989   */\n      0x00\n        /* \"#utility.yul\":11033:11034   */\n      0x08\n        /* \"#utility.yul\":11021:11031   */\n      dup4\n        /* \"#utility.yul\":11017:11035   */\n      mul\n        /* \"#utility.yul\":11056:11153   */\n      tag_253\n        /* \"#utility.yul\":11086:11152   */\n      0xffffffffffffffffffffffffffffffffffffffffffffffffffffffffffffffff\n        /* \"#utility.yul\":11075:11084   */\n      dup3\n        /* \"#utility.yul\":11056:11153   */\n      tag_136\n      jump\t// in\n    tag_253:\n        /* \"#utility.yul\":11174:11213   */\n      tag_254\n        /* \"#utility.yul\":11204:11212   */\n      dup7\n        /* \"#utility.yul\":11193:11202   */\n      dup4\n        /* \"#utility.yul\":11174:11213   */\n      tag_136\n      jump\t// in\n    tag_254:\n        /* \"#utility.yul\":11162:11213   */\n      swap6\n      pop\n        /* \"#utility.yul\":11246:11250   */\n      dup1\n        /* \"#utility.yul\":11242:11251   */\n      not\n        /* \"#utility.yul\":11235:11240   */\n      dup5\n        /* \"#utility.yul\":11231:11252   */\n      and\n        /* \"#utility.yul\":11222:11252   */\n      swap4\n      pop\n        /* \"#utility.yul\":11295:11299   */\n      dup1\n        /* \"#utility.yul\":11285:11293   */\n      dup7\n        /* \"#utility.yul\":11281:11300   */\n      and\n        /* \"#utility.yul\":11274:11279   */\n      dup5\n        /* \"#utility.yul\":11271:11301   */\n      or\n        /* \"#utility.yul\":11261:11301   */\n      swap3\n      pop\n        /* \"#utility.yul\":10990:11307   */\n      pop\n      pop\n        /* \"#utility.yul\":10914:11307   */\n      swap4\n      swap3\n      pop\n      pop\n      pop\n      jump\t// out\n        /* \"#utility.yul\":11313:11373   */\n    tag_138:\n        /* \"#utility.yul\":11341:11344   */\n      0x00\n        /* \"#utility.yul\":11362:11367   */\n      dup2\n        /* \"#utility.yul\":11355:11367   */\n      swap1\n      pop\n        /* \"#utility.yul\":11313:11373   */\n      swap2\n      swap1\n      pop\n      jump\t// out\n        /* \"#utility.yul\":11379:11521   */\n    tag_139:\n        /* \"#utility.yul\":11429:11438   */\n      0x00\n        /* \"#utility.yul\":11462:11515   */\n      tag_257\n        /* \"#utility.yul\":11480:11514   */\n      tag_258\n        /* \"#utility.yul\":11489:11513   */\n      tag_259\n        /* \"#utility.yul\":11507:11512   */\n      dup5\n        /* \"#utility.yul\":11489:11513   */\n      tag_108\n      jump\t// in\n    tag_259:\n        /* \"#utility.yul\":11480:11514   */\n      tag_138\n      jump\t// in\n    tag_258:\n        /* \"#utility.yul\":11462:11515   */\n      tag_108\n      jump\t// in\n    tag_257:\n        /* \"#utility.yul\":11449:11515   */\n      swap1\n      pop\n        /* \"#utility.yul\":11379:11521   */\n      swap2\n      swap1\n      pop\n      jump\t// out\n        /* \"#utility.yul\":11527:11602   */\n    tag_140:\n        /* \"#utility.yul\":11570:11573   */\n      0x00\n        /* \"#utility.yul\":11591:11596   */\n      dup2\n        /* \"#utility.yul\":11584:11596   */\n      swap1\n      pop\n        /* \"#utility.yul\":11527:11602   */\n      swap2\n      swap1\n      pop\n      jump\t// out\n        /* \"#utility.yul\":11608:11877   */\n    tag_141:\n        /* \"#utility.yul\":11718:11757   */\n      tag_262\n        /* \"#utility.yul\":11749:11756   */\n      dup4\n        /* \"#utility.yul\":11718:11757   */\n      tag_139\n      jump\t// in\n    tag_262:\n        /* \"#utility.yul\":11779:11870   */\n      tag_263\n        /* \"#utility.yul\":11828:11869   */\n      tag_264\n        /* \"#utility.yul\":11852:11868   */\n      dup3\n        /* \"#utility.yul\":11828:11869   */\n      tag_140\n      jump\t// in\n    tag_264:\n        /* \"#utility.yul\":11820:11826   */\n      dup5\n        /* \"#utility.yul\":11813:11817   */\n      dup5\n        /* \"#utility.yul\":11807:11818   */\n      sload\n        /* \"#utility.yul\":11779:11870   */\n      tag_137\n      jump\t// in\n    tag_263:\n        /* \"#utility.yul\":11773:11777   */\n      dup3\n        /* \"#utility.yul\":11766:11871   */\n      sstore\n        /* \"#utility.yul\":11684:11877   */\n      pop\n        /* \"#utility.yul\":11608:11877   */\n      pop\n      pop\n      pop\n      jump\t// out\n        /* \"#utility.yul\":11883:11956   */\n    tag_142:\n        /* \"#utility.yul\":11928:11931   */\n      0x00\n        /* \"#utility.yul\":11883:11956   */\n      swap1\n      jump\t// out\n        /* \"#utility.yul\":11962:12151   */\n    tag_143:\n        /* \"#utility.yul\":12039:12071   */\n      tag_267\n      tag_142\n      jump\t// in\n    tag_267:\n        /* \"#utility.yul\":12080:12145   */\n      tag_268\n        /* \"#utility.yul\":12138:12144   */\n      dup2\n        /* \"#utility.yul\":12130:12136   */\n      dup5\n        /* \"#utility.yul\":12124:12128   */\n      dup5\n        /* \"#utility.yul\":12080:12145   */\n      tag_141\n      jump\t// in\n    tag_268:\n        /* \"#utility.yul\":12015:12151   */\n      pop\n        /* \"#utility.yul\":11962:12151   */\n      pop\n      pop\n      jump\t// out\n        /* \"#utility.yul\":12157:12343   */\n    tag_144:\n        /* \"#utility.yul\":12217:12337   */\n    tag_270:\n        /* \"#utility.yul\":12234:12237   */\n      dup2\n        /* \"#utility.yul\":12227:12232   */\n      dup2\n        /* \"#utility.yul\":12224:12238   */\n      lt\n        /* \"#utility.yul\":12217:12337   */\n      iszero\n      tag_272\n      jumpi\n        /* \"#utility.yul\":12288:12327   */\n      tag_273\n        /* \"#utility.yul\":12325:12326   */\n      0x00\n        /* \"#utility.yul\":12318:12323   */\n      dup3\n        /* \"#utility.yul\":12288:12327   */\n      tag_143\n      jump\t// in\n    tag_273:\n        /* \"#utility.yul\":12261:12262   */\n      0x01\n        /* \"#utility.yul\":12254:12259   */\n      dup2\n        /* \"#utility.yul\":12250:12263   */\n      add\n        /* \"#utility.yul\":12241:12263   */\n      swap1\n      pop\n        /* \"#utility.yul\":12217:12337   */\n      jump(tag_270)\n    tag_272:\n        /* \"#utility.yul\":12157:12343   */\n      pop\n      pop\n      jump\t// out\n        /* \"#utility.yul\":12349:12892   */\n    tag_145:\n        /* \"#utility.yul\":12450:12452   */\n      0x1f\n        /* \"#utility.yul\":12445:12448   */\n      dup3\n        /* \"#utility.yul\":12442:12453   */\n      gt\n        /* \"#utility.yul\":12439:12885   */\n      iszero\n      tag_275\n      jumpi\n        /* \"#utility.yul\":12484:12522   */\n      tag_276\n        /* \"#utility.yul\":12516:12521   */\n      dup2\n        /* \"#utility.yul\":12484:12522   */\n      tag_134\n      jump\t// in\n    tag_276:\n        /* \"#utility.yul\":12568:12597   */\n      tag_277\n        /* \"#utility.yul\":12586:12596   */\n      dup5\n        /* \"#utility.yul\":12568:12597   */\n      tag_135\n      jump\t// in\n    tag_277:\n        /* \"#utility.yul\":12558:12566   */\n      dup2\n        /* \"#utility.yul\":12554:12598   */\n      add\n        /* \"#utility.yul\":12751:12753   */\n      0x20\n        /* \"#utility.yul\":12739:12749   */\n      dup6\n        /* \"#utility.yul\":12736:12754   */\n      lt\n        /* \"#utility.yul\":12733:12782   */\n      iszero\n      tag_278\n      jumpi\n        /* \"#utility.yul\":12772:12780   */\n      dup2\n        /* \"#utility.yul\":12757:12780   */\n      swap1\n      pop\n        /* \"#utility.yul\":12733:12782   */\n    tag_278:\n        /* \"#utility.yul\":12795:12875   */\n      tag_279\n        /* \"#utility.yul\":12851:12873   */\n      tag_280\n        /* \"#utility.yul\":12869:12872   */\n      dup6\n        /* \"#utility.yul\":12851:12873   */\n      tag_135\n      jump\t// in\n    tag_280:\n        /* \"#utility.yul\":12841:12849   */\n      dup4\n        /* \"#utility.yul\":12837:12874   */\n      add\n        /* \"#utility.yul\":12824:12835   */\n      dup3\n        /* \"#utility.yul\":12795:12875   */\n      tag_144\n      jump\t// in\n    tag_279:\n        /* \"#utility.yul\":12454:12885   */\n      pop\n      pop\n        /* \"#utility.yul\":12439:12885   */\n    tag_275:\n        /* \"#utility.yul\":12349:12892   */\n      pop\n      pop\n      pop\n      jump\t// out\n        /* \"#utility.yul\":12898:13015   */\n    tag_146:\n        /* \"#utility.yul\":12952:12960   */\n      0x00\n        /* \"#utility.yul\":13002:13007   */\n      dup3\n        /* \"#utility.yul\":12996:13000   */\n      dup3\n        /* \"#utility.yul\":12992:13008   */\n      shr\n        /* \"#utility.yul\":12971:13008   */\n      swap1\n      pop\n        /* \"#utility.yul\":12898:13015   */\n      swap3\n      swap2\n      pop\n      pop\n      jump\t// out\n        /* \"#utility.yul\":13021:13190   */\n    tag_147:\n        /* \"#utility.yul\":13065:13071   */\n      0x00\n        /* \"#utility.yul\":13098:13149   */\n      tag_283\n        /* \"#utility.yul\":13146:13147   */\n      0x00\n        /* \"#utility.yul\":13142:13148   */\n      not\n        /* \"#utility.yul\":13134:13139   */\n      dup5\n        /* \"#utility.yul\":13131:13132   */\n      0x08\n        /* \"#utility.yul\":13127:13140   */\n      mul\n        /* \"#utility.yul\":13098:13149   */\n      tag_146\n      jump\t// in\n    tag_283:\n        /* \"#utility.yul\":13094:13150   */\n      not\n        /* \"#utility.yul\":13179:13183   */\n      dup1\n        /* \"#utility.yul\":13173:13177   */\n      dup4\n        /* \"#utility.yul\":13169:13184   */\n      and\n        /* \"#utility.yul\":13159:13184   */\n      swap2\n      pop\n        /* \"#utility.yul\":13072:13190   */\n      pop\n        /* \"#utility.yul\":13021:13190   */\n      swap3\n      swap2\n      pop\n      pop\n      jump\t// out\n        /* \"#utility.yul\":13195:13490   */\n    tag_148:\n        /* \"#utility.yul\":13271:13275   */\n      0x00\n        /* \"#utility.yul\":13417:13446   */\n      tag_285\n        /* \"#utility.yul\":13442:13445   */\n      dup4\n        /* \"#utility.yul\":13436:13440   */\n      dup4\n        /* \"#utility.yul\":13417:13446   */\n      tag_147\n      jump\t// in\n    tag_285:\n        /* \"#utility.yul\":13409:13446   */\n      swap2\n      pop\n        /* \"#utility.yul\":13479:13482   */\n      dup3\n        /* \"#utility.yul\":13476:13477   */\n      0x02\n        /* \"#utility.yul\":13472:13483   */\n      mul\n        /* \"#utility.yul\":13466:13470   */\n      dup3\n        /* \"#utility.yul\":13463:13484   */\n      or\n        /* \"#utility.yul\":13455:13484   */\n      swap1\n      pop\n        /* \"#utility.yul\":13195:13490   */\n      swap3\n      swap2\n      pop\n      pop\n      jump\t// out\n        /* \"#utility.yul\":13495:14890   */\n    tag_57:\n        /* \"#utility.yul\":13612:13649   */\n      tag_287\n        /* \"#utility.yul\":13645:13648   */\n      dup3\n        /* \"#utility.yul\":13612:13649   */\n      tag_124\n      jump\t// in\n    tag_287:\n        /* \"#utility.yul\":13714:13732   */\n      0xffffffffffffffff\n        /* \"#utility.yul\":13706:13712   */\n      dup2\n        /* \"#utility.yul\":13703:13733   */\n      gt\n        /* \"#utility.yul\":13700:13756   */\n      iszero\n      tag_288\n      jumpi\n        /* \"#utility.yul\":13736:13754   */\n      tag_289\n      tag_114\n      jump\t// in\n    tag_289:\n        /* \"#utility.yul\":13700:13756   */\n    tag_288:\n        /* \"#utility.yul\":13780:13818   */\n      tag_290\n        /* \"#utility.yul\":13812:13816   */\n      dup3\n        /* \"#utility.yul\":13806:13817   */\n      sload\n        /* \"#utility.yul\":13780:13818   */\n      tag_72\n      jump\t// in\n    tag_290:\n        /* \"#utility.yul\":13865:13932   */\n      tag_291\n        /* \"#utility.yul\":13925:13931   */\n      dup3\n        /* \"#utility.yul\":13917:13923   */\n      dup3\n        /* \"#utility.yul\":13911:13915   */\n      dup6\n        /* \"#utility.yul\":13865:13932   */\n      tag_145\n      jump\t// in\n    tag_291:\n        /* \"#utility.yul\":13959:13960   */\n      0x00\n        /* \"#utility.yul\":13983:13987   */\n      0x20\n        /* \"#utility.yul\":13970:13987   */\n      swap1\n      pop\n        /* \"#utility.yul\":14015:14017   */\n      0x1f\n        /* \"#utility.yul\":14007:14013   */\n      dup4\n        /* \"#utility.yul\":14004:14018   */\n      gt\n        /* \"#utility.yul\":14032:14033   */\n      0x01\n        /* \"#utility.yul\":14027:14645   */\n      dup2\n      eq\n      tag_293\n      jumpi\n        /* \"#utility.yul\":14689:14690   */\n      0x00\n        /* \"#utility.yul\":14706:14712   */\n      dup5\n        /* \"#utility.yul\":14703:14780   */\n      iszero\n      tag_294\n      jumpi\n        /* \"#utility.yul\":14755:14764   */\n      dup3\n        /* \"#utility.yul\":14750:14753   */\n      dup8\n        /* \"#utility.yul\":14746:14765   */\n      add\n        /* \"#utility.yul\":14740:14766   */\n      mload\n        /* \"#utility.yul\":14731:14766   */\n      swap1\n      pop\n        /* \"#utility.yul\":14703:14780   */\n    tag_294:\n        /* \"#utility.yul\":14806:14873   */\n      tag_295\n        /* \"#utility.yul\":14866:14872   */\n      dup6\n        /* \"#utility.yul\":14859:14864   */\n      dup3\n        /* \"#utility.yul\":14806:14873   */\n      tag_148\n      jump\t// in\n    tag_295:\n        /* \"#utility.yul\":14800:14804   */\n      dup7\n        /* \"#utility.yul\":14793:14874   */\n      sstore\n        /* \"#utility.yul\":14662:14884   */\n      pop\n        /* \"#utility.yul\":13997:14884   */\n      jump(tag_292)\n        /* \"#utility.yul\":14027:14645   */\n    tag_293:\n        /* \"#utility.yul\":14079:14083   */\n      0x1f\n        /* \"#utility.yul\":14075:14084   */\n      not\n        /* \"#utility.yul\":14067:14073   */\n      dup5\n        /* \"#utility.yul\":14063:14085   */\n      and\n        /* \"#utility.yul\":14113:14150   */\n      tag_296\n        /* \"#utility.yul\":14145:14149   */\n      dup7\n        /* \"#utility.yul\":14113:14150   */\n      tag_134\n      jump\t// in\n    tag_296:\n        /* \"#utility.yul\":14172:14173   */\n      0x00\n        /* \"#utility.yul\":14186:14394   */\n    tag_297:\n        /* \"#utility.yul\":14200:14207   */\n      dup3\n        /* \"#utility.yul\":14197:14198   */\n      dup2\n        /* \"#utility.yul\":14194:14208   */\n      lt\n        /* \"#utility.yul\":14186:14394   */\n      iszero\n      tag_299\n      jumpi\n        /* \"#utility.yul\":14279:14288   */\n      dup5\n        /* \"#utility.yul\":14274:14277   */\n      dup10\n        /* \"#utility.yul\":14270:14289   */\n      add\n        /* \"#utility.yul\":14264:14290   */\n      mload\n        /* \"#utility.yul\":14256:14262   */\n      dup3\n        /* \"#utility.yul\":14249:14291   */\n      sstore\n        /* \"#utility.yul\":14330:14331   */\n      0x01\n        /* \"#utility.yul\":14322:14328   */\n      dup3\n        /* \"#utility.yul\":14318:14332   */\n      add\n        /* \"#utility.yul\":14308:14332   */\n      swap2\n      pop\n        /* \"#utility.yul\":14377:14379   */\n      0x20\n        /* \"#utility.yul\":14366:14375   */\n      dup6\n        /* \"#utility.yul\":14362:14380   */\n      add\n        /* \"#utility.yul\":14349:14380   */\n      swap5\n      pop\n        /* \"#utility.yul\":14223:14227   */\n      0x20\n        /* \"#utility.yul\":14220:14221   */\n      dup2\n        /* \"#utility.yul\":14216:14228   */\n      add\n        /* \"#utility.yul\":14211:14228   */\n      swap1\n      pop\n        /* \"#utility.yul\":14186:14394   */\n      jump(tag_297)\n    tag_299:\n        /* \"#utility.yul\":14422:14428   */\n      dup7\n        /* \"#utility.yul\":14413:14420   */\n      dup4\n        /* \"#utility.yul\":14410:14429   */\n      lt\n        /* \"#utility.yul\":14407:14586   */\n      iszero\n      tag_300\n      jumpi\n        /* \"#utility.yul\":14480:14489   */\n      dup5\n        /* \"#utility.yul\":14475:14478   */\n      dup10\n        /* \"#utility.yul\":14471:14490   */\n      add\n        /* \"#utility.yul\":14465:14491   */\n      mload\n        /* \"#utility.yul\":14523:14571   */\n      tag_301\n        /* \"#utility.yul\":14565:14569   */\n      0x1f\n        /* \"#utility.yul\":14557:14563   */\n      dup10\n        /* \"#utility.yul\":14553:14570   */\n      and\n        /* \"#utility.yul\":14542:14551   */\n      dup3\n        /* \"#utility.yul\":14523:14571   */\n      tag_147\n      jump\t// in\n    tag_301:\n        /* \"#utility.yul\":14515:14521   */\n      dup4\n        /* \"#utility.yul\":14508:14572   */\n      sstore\n        /* \"#utility.yul\":14430:14586   */\n      pop\n        /* \"#utility.yul\":14407:14586   */\n    tag_300:\n        /* \"#utility.yul\":14632:14633   */\n      0x01\n        /* \"#utility.yul\":14628:14629   */\n      0x02\n        /* \"#utility.yul\":14620:14626   */\n      dup9\n        /* \"#utility.yul\":14616:14630   */\n      mul\n        /* \"#utility.yul\":14612:14634   */\n      add\n        /* \"#utility.yul\":14606:14610   */\n      dup9\n        /* \"#utility.yul\":14599:14635   */\n      sstore\n        /* \"#utility.yul\":14034:14645   */\n      pop\n      pop\n      pop\n        /* \"#utility.yul\":13997:14884   */\n    tag_292:\n      pop\n        /* \"#utility.yul\":13587:14890   */\n      pop\n      pop\n      pop\n        /* \"#utility.yul\":13495:14890   */\n      pop\n      pop\n      jump\t// out\n        /* \"#utility.yul\":14896:15076   */\n    tag_82:\n        /* \"#utility.yul\":14944:15021   */\n      0x4e487b7100000000000000000000000000000000000000000000000000000000\n        /* \"#utility.yul\":14941:14942   */\n      0x00\n        /* \"#utility.yul\":14934:15022   */\n      mstore\n        /* \"#utility.yul\":15041:15045   */\n      0x32\n        /* \"#utility.yul\":15038:15039   */\n      0x04\n        /* \"#utility.yul\":15031:15046   */\n      mstore\n        /* \"#utility.yul\":15065:15069   */\n      0x24\n        /* \"#utility.yul\":15062:15063   */\n      0x00\n        /* \"#utility.yul\":15055:15070   */\n      revert\n\n    auxdata: 0xa26469706673582212202c7726882fc8fd2e81be768c0399e3c3810f8e976da54c42029f53a812a156ec64736f6c63430008120033\n}\n",
				"bytecode": {
					"linkReferences": {},
					"object": "608060405234801561001057600080fd5b50611153806100206000396000f3fe608060405234801561001057600080fd5b50600436106100a95760003560e01c8063a2375d1e11610071578063a2375d1e1461013a578063c477ecab14610158578063cd914def14610188578063e93314ab146101a4578063edeb21cf146101c2578063fb49cfbc146101de576100a9565b80631908791c146100ae57806349d3b319146100ca578063562ca543146100e6578063719a00171461010257806393dbeaa31461011e575b600080fd5b6100c860048036038101906100c39190610b12565b6101fa565b005b6100e460048036038101906100df9190610b12565b610282565b005b61010060048036038101906100fb9190610b81565b610332565b005b61011c60048036038101906101179190610b12565b6103a9565b005b61013860048036038101906101339190610b81565b610431565b005b610142610480565b60405161014f9190610cce565b60405180910390f35b610172600480360381019061016d9190610cf0565b610540565b60405161017f9190610d7c565b60405180910390f35b6101a2600480360381019061019d9190610b12565b610671565b005b6101ac610721565b6040516101b99190610dee565b60405180910390f35b6101dc60048036038101906101d79190610b81565b6107e1565b005b6101f860048036038101906101f39190610b81565b610858565b005b6040518060600160405280848152602001838152602001827dffffffffffffffffffffffffffffffffffffffffffffffffffffffffffff19168152506008600082015181600001556020820151816001019081610257919061101c565b5060408201518160020160006101000a81548161ffff021916908360f01c0217905550905050505050565b600f6040518060600160405280858152602001848152602001837dffffffffffffffffffffffffffffffffffffffffffffffffffffffffffff19168152509080600181540180825580915050600190039060005260206000209060030201600090919091909150600082015181600001556020820151816001019081610308919061101c565b5060408201518160020160006101000a81548161ffff021916908360f01c02179055505050505050565b60066040518060600160405280858152602001848152602001838152509080600181540180825580915050600190039060005260206000209060030201600090919091909150600082015181600001908161038d919061101c565b5060208201518160010155604082015181600201555050505050565b6040518060600160405280848152602001838152602001827dffffffffffffffffffffffffffffffffffffffffffffffffffffffffffff1916815250600c600082015181600001556020820151816001019081610406919061101c565b5060408201518160020160006101000a81548161ffff021916908360f01c0217905550905050505050565b60405180606001604052808481526020018381526020018281525060036000820151816000019081610463919061101c565b506020820151816001015560408201518160020155905050505050565b6104886108a6565b60036040518060600160405290816000820180546104a590610e3f565b80601f01602080910402602001604051908101604052809291908181526020018280546104d190610e3f565b801561051e5780601f106104f35761010080835404028352916020019161051e565b820191906000526020600020905b81548152906001019060200180831161050157829003601f168201915b5050505050815260200160018201548152602001600282015481525050905090565b6105486108c7565b600f828154811061055c5761055b6110ee565b5b90600052602060002090600302016040518060600160405290816000820154815260200160018201805461058f90610e3f565b80601f01602080910402602001604051908101604052809291908181526020018280546105bb90610e3f565b80156106085780601f106105dd57610100808354040283529160200191610608565b820191906000526020600020905b8154815290600101906020018083116105eb57829003601f168201915b505050505081526020016002820160009054906101000a900460f01b7dffffffffffffffffffffffffffffffffffffffffffffffffffffffffffff19167dffffffffffffffffffffffffffffffffffffffffffffffffffffffffffff1916815250509050919050565b600b6040518060600160405280858152602001848152602001837dffffffffffffffffffffffffffffffffffffffffffffffffffffffffffff191681525090806001815401808255809150506001900390600052602060002090600302016000909190919091506000820151816000015560208201518160010190816106f7919061101c565b5060408201518160020160006101000a81548161ffff021916908360f01c02179055505050505050565b610729610909565b600060405180606001604052908160008201805461074690610e3f565b80601f016020809104026020016040519081016040528092919081815260200182805461077290610e3f565b80156107bf5780601f10610794576101008083540402835291602001916107bf565b820191906000526020600020905b8154815290600101906020018083116107a257829003601f168201915b5050505050815260200160018201548152602001600282015481525050905090565b60076040518060600160405280858152602001848152602001838152509080600181540180825580915050600190039060005260206000209060030201600090919091909150600082015181600001908161083c919061101c565b5060208201518160010155604082015181600201555050505050565b604051806060016040528084815260200183815260200182815250600080820151816000019081610889919061101c565b506020820151816001015560408201518160020155905050505050565b60405180606001604052806060815260200160008152602001600081525090565b6040518060600160405280600081526020016060815260200160007dffffffffffffffffffffffffffffffffffffffffffffffffffffffffffff191681525090565b60405180606001604052806060815260200160008152602001600081525090565b6000604051905090565b600080fd5b600080fd5b6000819050919050565b6109518161093e565b811461095c57600080fd5b50565b60008135905061096e81610948565b92915050565b600080fd5b600080fd5b6000601f19601f8301169050919050565b7f4e487b7100000000000000000000000000000000000000000000000000000000600052604160045260246000fd5b6109c78261097e565b810181811067ffffffffffffffff821117156109e6576109e561098f565b5b80604052505050565b60006109f961092a565b9050610a0582826109be565b919050565b600067ffffffffffffffff821115610a2557610a2461098f565b5b610a2e8261097e565b9050602081019050919050565b82818337600083830152505050565b6000610a5d610a5884610a0a565b6109ef565b905082815260208101848484011115610a7957610a78610979565b5b610a84848285610a3b565b509392505050565b600082601f830112610aa157610aa0610974565b5b8135610ab1848260208601610a4a565b91505092915050565b60007fffff00000000000000000000000000000000000000000000000000000000000082169050919050565b610aef81610aba565b8114610afa57600080fd5b50565b600081359050610b0c81610ae6565b92915050565b600080600060608486031215610b2b57610b2a610934565b5b6000610b398682870161095f565b935050602084013567ffffffffffffffff811115610b5a57610b59610939565b5b610b6686828701610a8c565b9250506040610b7786828701610afd565b9150509250925092565b600080600060608486031215610b9a57610b99610934565b5b600084013567ffffffffffffffff811115610bb857610bb7610939565b5b610bc486828701610a8c565b9350506020610bd58682870161095f565b9250506040610be68682870161095f565b9150509250925092565b600081519050919050565b600082825260208201905092915050565b60005b83811015610c2a578082015181840152602081019050610c0f565b60008484015250505050565b6000610c4182610bf0565b610c4b8185610bfb565b9350610c5b818560208601610c0c565b610c648161097e565b840191505092915050565b610c788161093e565b82525050565b60006060830160008301518482036000860152610c9b8282610c36565b9150506020830151610cb06020860182610c6f565b506040830151610cc36040860182610c6f565b508091505092915050565b60006020820190508181036000830152610ce88184610c7e565b905092915050565b600060208284031215610d0657610d05610934565b5b6000610d148482850161095f565b91505092915050565b610d2681610aba565b82525050565b6000606083016000830151610d446000860182610c6f565b5060208301518482036020860152610d5c8282610c36565b9150506040830151610d716040860182610d1d565b508091505092915050565b60006020820190508181036000830152610d968184610d2c565b905092915050565b60006060830160008301518482036000860152610dbb8282610c36565b9150506020830151610dd06020860182610c6f565b506040830151610de36040860182610c6f565b508091505092915050565b60006020820190508181036000830152610e088184610d9e565b905092915050565b7f4e487b7100000000000000000000000000000000000000000000000000000000600052602260045260246000fd5b60006002820490506001821680610e5757607f821691505b602082108103610e6a57610e69610e10565b5b50919050565b60008190508160005260206000209050919050565b60006020601f8301049050919050565b600082821b905092915050565b600060088302610ed27fffffffffffffffffffffffffffffffffffffffffffffffffffffffffffffffff82610e95565b610edc8683610e95565b95508019841693508086168417925050509392505050565b6000819050919050565b6000610f19610f14610f0f8461093e565b610ef4565b61093e565b9050919050565b6000819050919050565b610f3383610efe565b610f47610f3f82610f20565b848454610ea2565b825550505050565b600090565b610f5c610f4f565b610f67818484610f2a565b505050565b5b81811015610f8b57610f80600082610f54565b600181019050610f6d565b5050565b601f821115610fd057610fa181610e70565b610faa84610e85565b81016020851015610fb9578190505b610fcd610fc585610e85565b830182610f6c565b50505b505050565b600082821c905092915050565b6000610ff360001984600802610fd5565b1980831691505092915050565b600061100c8383610fe2565b9150826002028217905092915050565b61102582610bf0565b67ffffffffffffffff81111561103e5761103d61098f565b5b6110488254610e3f565b611053828285610f8f565b600060209050601f8311600181146110865760008415611074578287015190505b61107e8582611000565b8655506110e6565b601f19841661109486610e70565b60005b828110156110bc57848901518255600182019150602085019450602081019050611097565b868310156110d957848901516110d5601f891682610fe2565b8355505b6001600288020188555050505b505050505050565b7f4e487b7100000000000000000000000000000000000000000000000000000000600052603260045260246000fdfea26469706673582212202c7726882fc8fd2e81be768c0399e3c3810f8e976da54c42029f53a812a156ec64736f6c63430008120033",
					"opcodes": "PUSH1 0x80 PUSH1 0x40 MSTORE CALLVALUE DUP1 ISZERO PUSH2 0x10 JUMPI PUSH1 0x0 DUP1 REVERT JUMPDEST POP PUSH2 0x1153 DUP1 PUSH2 0x20 PUSH1 0x0 CODECOPY PUSH1 0x0 RETURN INVALID PUSH1 0x80 PUSH1 0x40 MSTORE CALLVALUE DUP1 ISZERO PUSH2 0x10 JUMPI PUSH1 0x0 DUP1 REVERT JUMPDEST POP PUSH1 0x4 CALLDATASIZE LT PUSH2 0xA9 JUMPI PUSH1 0x0 CALLDATALOAD PUSH1 0xE0 SHR DUP1 PUSH4 0xA2375D1E GT PUSH2 0x71 JUMPI DUP1 PUSH4 0xA2375D1E EQ PUSH2 0x13A JUMPI DUP1 PUSH4 0xC477ECAB EQ PUSH2 0x158 JUMPI DUP1 PUSH4 0xCD914DEF EQ PUSH2 0x188 JUMPI DUP1 PUSH4 0xE93314AB EQ PUSH2 0x1A4 JUMPI DUP1 PUSH4 0xEDEB21CF EQ PUSH2 0x1C2 JUMPI DUP1 PUSH4 0xFB49CFBC EQ PUSH2 0x1DE JUMPI PUSH2 0xA9 JUMP JUMPDEST DUP1 PUSH4 0x1908791C EQ PUSH2 0xAE JUMPI DUP1 PUSH4 0x49D3B319 EQ PUSH2 0xCA JUMPI DUP1 PUSH4 0x562CA543 EQ PUSH2 0xE6 JUMPI DUP1 PUSH4 0x719A0017 EQ PUSH2 0x102 JUMPI DUP1 PUSH4 0x93DBEAA3 EQ PUSH2 0x11E JUMPI JUMPDEST PUSH1 0x0 DUP1 REVERT JUMPDEST PUSH2 0xC8 PUSH1 0x4 DUP1 CALLDATASIZE SUB DUP2 ADD SWAP1 PUSH2 0xC3 SWAP2 SWAP1 PUSH2 0xB12 JUMP JUMPDEST PUSH2 0x1FA JUMP JUMPDEST STOP JUMPDEST PUSH2 0xE4 PUSH1 0x4 DUP1 CALLDATASIZE SUB DUP2 ADD SWAP1 PUSH2 0xDF SWAP2 SWAP1 PUSH2 0xB12 JUMP JUMPDEST PUSH2 0x282 JUMP JUMPDEST STOP JUMPDEST PUSH2 0x100 PUSH1 0x4 DUP1 CALLDATASIZE SUB DUP2 ADD SWAP1 PUSH2 0xFB SWAP2 SWAP1 PUSH2 0xB81 JUMP JUMPDEST PUSH2 0x332 JUMP JUMPDEST STOP JUMPDEST PUSH2 0x11C PUSH1 0x4 DUP1 CALLDATASIZE SUB DUP2 ADD SWAP1 PUSH2 0x117 SWAP2 SWAP1 PUSH2 0xB12 JUMP JUMPDEST PUSH2 0x3A9 JUMP JUMPDEST STOP JUMPDEST PUSH2 0x138 PUSH1 0x4 DUP1 CALLDATASIZE SUB DUP2 ADD SWAP1 PUSH2 0x133 SWAP2 SWAP1 PUSH2 0xB81 JUMP JUMPDEST PUSH2 0x431 JUMP JUMPDEST STOP JUMPDEST PUSH2 0x142 PUSH2 0x480 JUMP JUMPDEST PUSH1 0x40 MLOAD PUSH2 0x14F SWAP2 SWAP1 PUSH2 0xCCE JUMP JUMPDEST PUSH1 0x40 MLOAD DUP1 SWAP2 SUB SWAP1 RETURN JUMPDEST PUSH2 0x172 PUSH1 0x4 DUP1 CALLDATASIZE SUB DUP2 ADD SWAP1 PUSH2 0x16D SWAP2 SWAP1 PUSH2 0xCF0 JUMP JUMPDEST PUSH2 0x540 JUMP JUMPDEST PUSH1 0x40 MLOAD PUSH2 0x17F SWAP2 SWAP1 PUSH2 0xD7C JUMP JUMPDEST PUSH1 0x40 MLOAD DUP1 SWAP2 SUB SWAP1 RETURN JUMPDEST PUSH2 0x1A2 PUSH1 0x4 DUP1 CALLDATASIZE SUB DUP2 ADD SWAP1 PUSH2 0x19D SWAP2 SWAP1 PUSH2 0xB12 JUMP JUMPDEST PUSH2 0x671 JUMP JUMPDEST STOP JUMPDEST PUSH2 0x1AC PUSH2 0x721 JUMP JUMPDEST PUSH1 0x40 MLOAD PUSH2 0x1B9 SWAP2 SWAP1 PUSH2 0xDEE JUMP JUMPDEST PUSH1 0x40 MLOAD DUP1 SWAP2 SUB SWAP1 RETURN JUMPDEST PUSH2 0x1DC PUSH1 0x4 DUP1 CALLDATASIZE SUB DUP2 ADD SWAP1 PUSH2 0x1D7 SWAP2 SWAP1 PUSH2 0xB81 JUMP JUMPDEST PUSH2 0x7E1 JUMP JUMPDEST STOP JUMPDEST PUSH2 0x1F8 PUSH1 0x4 DUP1 CALLDATASIZE SUB DUP2 ADD SWAP1 PUSH2 0x1F3 SWAP2 SWAP1 PUSH2 0xB81 JUMP JUMPDEST PUSH2 0x858 JUMP JUMPDEST STOP JUMPDEST PUSH1 0x40 MLOAD DUP1 PUSH1 0x60 ADD PUSH1 0x40 MSTORE DUP1 DUP5 DUP2 MSTORE PUSH1 0x20 ADD DUP4 DUP2 MSTORE PUSH1 0x20 ADD DUP3 PUSH30 0xFFFFFFFFFFFFFFFFFFFFFFFFFFFFFFFFFFFFFFFFFFFFFFFFFFFFFFFFFFFF NOT AND DUP2 MSTORE POP PUSH1 0x8 PUSH1 0x0 DUP3 ADD MLOAD DUP2 PUSH1 0x0 ADD SSTORE PUSH1 0x20 DUP3 ADD MLOAD DUP2 PUSH1 0x1 ADD SWAP1 DUP2 PUSH2 0x257 SWAP2 SWAP1 PUSH2 0x101C JUMP JUMPDEST POP PUSH1 0x40 DUP3 ADD MLOAD DUP2 PUSH1 0x2 ADD PUSH1 0x0 PUSH2 0x100 EXP DUP2 SLOAD DUP2 PUSH2 0xFFFF MUL NOT AND SWAP1 DUP4 PUSH1 0xF0 SHR MUL OR SWAP1 SSTORE POP SWAP1 POP POP POP POP POP JUMP JUMPDEST PUSH1 0xF PUSH1 0x40 MLOAD DUP1 PUSH1 0x60 ADD PUSH1 0x40 MSTORE DUP1 DUP6 DUP2 MSTORE PUSH1 0x20 ADD DUP5 DUP2 MSTORE PUSH1 0x20 ADD DUP4 PUSH30 0xFFFFFFFFFFFFFFFFFFFFFFFFFFFFFFFFFFFFFFFFFFFFFFFFFFFFFFFFFFFF NOT AND DUP2 MSTORE POP SWAP1 DUP1 PUSH1 0x1 DUP2 SLOAD ADD DUP1 DUP3 SSTORE DUP1 SWAP2 POP POP PUSH1 0x1 SWAP1 SUB SWAP1 PUSH1 0x0 MSTORE PUSH1 0x20 PUSH1 0x0 KECCAK256 SWAP1 PUSH1 0x3 MUL ADD PUSH1 0x0 SWAP1 SWAP2 SWAP1 SWAP2 SWAP1 SWAP2 POP PUSH1 0x0 DUP3 ADD MLOAD DUP2 PUSH1 0x0 ADD SSTORE PUSH1 0x20 DUP3 ADD MLOAD DUP2 PUSH1 0x1 ADD SWAP1 DUP2 PUSH2 0x308 SWAP2 SWAP1 PUSH2 0x101C JUMP JUMPDEST POP PUSH1 0x40 DUP3 ADD MLOAD DUP2 PUSH1 0x2 ADD PUSH1 0x0 PUSH2 0x100 EXP DUP2 SLOAD DUP2 PUSH2 0xFFFF MUL NOT AND SWAP1 DUP4 PUSH1 0xF0 SHR MUL OR SWAP1 SSTORE POP POP POP POP POP POP JUMP JUMPDEST PUSH1 0x6 PUSH1 0x40 MLOAD DUP1 PUSH1 0x60 ADD PUSH1 0x40 MSTORE DUP1 DUP6 DUP2 MSTORE PUSH1 0x20 ADD DUP5 DUP2 MSTORE PUSH1 0x20 ADD DUP4 DUP2 MSTORE POP SWAP1 DUP1 PUSH1 0x1 DUP2 SLOAD ADD DUP1 DUP3 SSTORE DUP1 SWAP2 POP POP PUSH1 0x1 SWAP1 SUB SWAP1 PUSH1 0x0 MSTORE PUSH1 0x20 PUSH1 0x0 KECCAK256 SWAP1 PUSH1 0x3 MUL ADD PUSH1 0x0 SWAP1 SWAP2 SWAP1 SWAP2 SWAP1 SWAP2 POP PUSH1 0x0 DUP3 ADD MLOAD DUP2 PUSH1 0x0 ADD SWAP1 DUP2 PUSH2 0x38D SWAP2 SWAP1 PUSH2 0x101C JUMP JUMPDEST POP PUSH1 0x20 DUP3 ADD MLOAD DUP2 PUSH1 0x1 ADD SSTORE PUSH1 0x40 DUP3 ADD MLOAD DUP2 PUSH1 0x2 ADD SSTORE POP POP POP POP POP JUMP JUMPDEST PUSH1 0x40 MLOAD DUP1 PUSH1 0x60 ADD PUSH1 0x40 MSTORE DUP1 DUP5 DUP2 MSTORE PUSH1 0x20 ADD DUP4 DUP2 MSTORE PUSH1 0x20 ADD DUP3 PUSH30 0xFFFFFFFFFFFFFFFFFFFFFFFFFFFFFFFFFFFFFFFFFFFFFFFFFFFFFFFFFFFF NOT AND DUP2 MSTORE POP PUSH1 0xC PUSH1 0x0 DUP3 ADD MLOAD DUP2 PUSH1 0x0 ADD SSTORE PUSH1 0x20 DUP3 ADD MLOAD DUP2 PUSH1 0x1 ADD SWAP1 DUP2 PUSH2 0x406 SWAP2 SWAP1 PUSH2 0x101C JUMP JUMPDEST POP PUSH1 0x40 DUP3 ADD MLOAD DUP2 PUSH1 0x2 ADD PUSH1 0x0 PUSH2 0x100 EXP DUP2 SLOAD DUP2 PUSH2 0xFFFF MUL NOT AND SWAP1 DUP4 PUSH1 0xF0 SHR MUL OR SWAP1 SSTORE POP SWAP1 POP POP POP POP POP JUMP JUMPDEST PUSH1 0x40 MLOAD DUP1 PUSH1 0x60 ADD PUSH1 0x40 MSTORE DUP1 DUP5 DUP2 MSTORE PUSH1 0x20 ADD DUP4 DUP2 MSTORE PUSH1 0x20 ADD DUP3 DUP2 MSTORE POP PUSH1 0x3 PUSH1 0x0 DUP3 ADD MLOAD DUP2 PUSH1 0x0 ADD SWAP1 DUP2 PUSH2 0x463 SWAP2 SWAP1 PUSH2 0x101C JUMP JUMPDEST POP PUSH1 0x20 DUP3 ADD MLOAD DUP2 PUSH1 0x1 ADD SSTORE PUSH1 0x40 DUP3 ADD MLOAD DUP2 PUSH1 0x2 ADD SSTORE SWAP1 POP POP POP POP POP JUMP JUMPDEST PUSH2 0x488 PUSH2 0x8A6 JUMP JUMPDEST PUSH1 0x3 PUSH1 0x40 MLOAD DUP1 PUSH1 0x60 ADD PUSH1 0x40 MSTORE SWAP1 DUP2 PUSH1 0x0 DUP3 ADD DUP1 SLOAD PUSH2 0x4A5 SWAP1 PUSH2 0xE3F JUMP JUMPDEST DUP1 PUSH1 0x1F ADD PUSH1 0x20 DUP1 SWAP2 DIV MUL PUSH1 0x20 ADD PUSH1 0x40 MLOAD SWAP1 DUP2 ADD PUSH1 0x40 MSTORE DUP1 SWAP3 SWAP2 SWAP1 DUP2 DUP2 MSTORE PUSH1 0x20 ADD DUP3 DUP1 SLOAD PUSH2 0x4D1 SWAP1 PUSH2 0xE3F JUMP JUMPDEST DUP1 ISZERO PUSH2 0x51E JUMPI DUP1 PUSH1 0x1F LT PUSH2 0x4F3 JUMPI PUSH2 0x100 DUP1 DUP4 SLOAD DIV MUL DUP4 MSTORE SWAP2 PUSH1 0x20 ADD SWAP2 PUSH2 0x51E JUMP JUMPDEST DUP3 ADD SWAP2 SWAP1 PUSH1 0x0 MSTORE PUSH1 0x20 PUSH1 0x0 KECCAK256 SWAP1 JUMPDEST DUP2 SLOAD DUP2 MSTORE SWAP1 PUSH1 0x1 ADD SWAP1 PUSH1 0x20 ADD DUP1 DUP4 GT PUSH2 0x501 JUMPI DUP3 SWAP1 SUB PUSH1 0x1F AND DUP3 ADD SWAP2 JUMPDEST POP POP POP POP POP DUP2 MSTORE PUSH1 0x20 ADD PUSH1 0x1 DUP3 ADD SLOAD DUP2 MSTORE PUSH1 0x20 ADD PUSH1 0x2 DUP3 ADD SLOAD DUP2 MSTORE POP POP SWAP1 POP SWAP1 JUMP JUMPDEST PUSH2 0x548 PUSH2 0x8C7 JUMP JUMPDEST PUSH1 0xF DUP3 DUP2 SLOAD DUP2 LT PUSH2 0x55C JUMPI PUSH2 0x55B PUSH2 0x10EE JUMP JUMPDEST JUMPDEST SWAP1 PUSH1 0x0 MSTORE PUSH1 0x20 PUSH1 0x0 KECCAK256 SWAP1 PUSH1 0x3 MUL ADD PUSH1 0x40 MLOAD DUP1 PUSH1 0x60 ADD PUSH1 0x40 MSTORE SWAP1 DUP2 PUSH1 0x0 DUP3 ADD SLOAD DUP2 MSTORE PUSH1 0x20 ADD PUSH1 0x1 DUP3 ADD DUP1 SLOAD PUSH2 0x58F SWAP1 PUSH2 0xE3F JUMP JUMPDEST DUP1 PUSH1 0x1F ADD PUSH1 0x20 DUP1 SWAP2 DIV MUL PUSH1 0x20 ADD PUSH1 0x40 MLOAD SWAP1 DUP2 ADD PUSH1 0x40 MSTORE DUP1 SWAP3 SWAP2 SWAP1 DUP2 DUP2 MSTORE PUSH1 0x20 ADD DUP3 DUP1 SLOAD PUSH2 0x5BB SWAP1 PUSH2 0xE3F JUMP JUMPDEST DUP1 ISZERO PUSH2 0x608 JUMPI DUP1 PUSH1 0x1F LT PUSH2 0x5DD JUMPI PUSH2 0x100 DUP1 DUP4 SLOAD DIV MUL DUP4 MSTORE SWAP2 PUSH1 0x20 ADD SWAP2 PUSH2 0x608 JUMP JUMPDEST DUP3 ADD SWAP2 SWAP1 PUSH1 0x0 MSTORE PUSH1 0x20 PUSH1 0x0 KECCAK256 SWAP1 JUMPDEST DUP2 SLOAD DUP2 MSTORE SWAP1 PUSH1 0x1 ADD SWAP1 PUSH1 0x20 ADD DUP1 DUP4 GT PUSH2 0x5EB JUMPI DUP3 SWAP1 SUB PUSH1 0x1F AND DUP3 ADD SWAP2 JUMPDEST POP POP POP POP POP DUP2 MSTORE PUSH1 0x20 ADD PUSH1 0x2 DUP3 ADD PUSH1 0x0 SWAP1 SLOAD SWAP1 PUSH2 0x100 EXP SWAP1 DIV PUSH1 0xF0 SHL PUSH30 0xFFFFFFFFFFFFFFFFFFFFFFFFFFFFFFFFFFFFFFFFFFFFFFFFFFFFFFFFFFFF NOT AND PUSH30 0xFFFFFFFFFFFFFFFFFFFFFFFFFFFFFFFFFFFFFFFFFFFFFFFFFFFFFFFFFFFF NOT AND DUP2 MSTORE POP POP SWAP1 POP SWAP2 SWAP1 POP JUMP JUMPDEST PUSH1 0xB PUSH1 0x40 MLOAD DUP1 PUSH1 0x60 ADD PUSH1 0x40 MSTORE DUP1 DUP6 DUP2 MSTORE PUSH1 0x20 ADD DUP5 DUP2 MSTORE PUSH1 0x20 ADD DUP4 PUSH30 0xFFFFFFFFFFFFFFFFFFFFFFFFFFFFFFFFFFFFFFFFFFFFFFFFFFFFFFFFFFFF NOT AND DUP2 MSTORE POP SWAP1 DUP1 PUSH1 0x1 DUP2 SLOAD ADD DUP1 DUP3 SSTORE DUP1 SWAP2 POP POP PUSH1 0x1 SWAP1 SUB SWAP1 PUSH1 0x0 MSTORE PUSH1 0x20 PUSH1 0x0 KECCAK256 SWAP1 PUSH1 0x3 MUL ADD PUSH1 0x0 SWAP1 SWAP2 SWAP1 SWAP2 SWAP1 SWAP2 POP PUSH1 0x0 DUP3 ADD MLOAD DUP2 PUSH1 0x0 ADD SSTORE PUSH1 0x20 DUP3 ADD MLOAD DUP2 PUSH1 0x1 ADD SWAP1 DUP2 PUSH2 0x6F7 SWAP2 SWAP1 PUSH2 0x101C JUMP JUMPDEST POP PUSH1 0x40 DUP3 ADD MLOAD DUP2 PUSH1 0x2 ADD PUSH1 0x0 PUSH2 0x100 EXP DUP2 SLOAD DUP2 PUSH2 0xFFFF MUL NOT AND SWAP1 DUP4 PUSH1 0xF0 SHR MUL OR SWAP1 SSTORE POP POP POP POP POP POP JUMP JUMPDEST PUSH2 0x729 PUSH2 0x909 JUMP JUMPDEST PUSH1 0x0 PUSH1 0x40 MLOAD DUP1 PUSH1 0x60 ADD PUSH1 0x40 MSTORE SWAP1 DUP2 PUSH1 0x0 DUP3 ADD DUP1 SLOAD PUSH2 0x746 SWAP1 PUSH2 0xE3F JUMP JUMPDEST DUP1 PUSH1 0x1F ADD PUSH1 0x20 DUP1 SWAP2 DIV MUL PUSH1 0x20 ADD PUSH1 0x40 MLOAD SWAP1 DUP2 ADD PUSH1 0x40 MSTORE DUP1 SWAP3 SWAP2 SWAP1 DUP2 DUP2 MSTORE PUSH1 0x20 ADD DUP3 DUP1 SLOAD PUSH2 0x772 SWAP1 PUSH2 0xE3F JUMP JUMPDEST DUP1 ISZERO PUSH2 0x7BF JUMPI DUP1 PUSH1 0x1F LT PUSH2 0x794 JUMPI PUSH2 0x100 DUP1 DUP4 SLOAD DIV MUL DUP4 MSTORE SWAP2 PUSH1 0x20 ADD SWAP2 PUSH2 0x7BF JUMP JUMPDEST DUP3 ADD SWAP2 SWAP1 PUSH1 0x0 MSTORE PUSH1 0x20 PUSH1 0x0 KECCAK256 SWAP1 JUMPDEST DUP2 SLOAD DUP2 MSTORE SWAP1 PUSH1 0x1 ADD SWAP1 PUSH1 0x20 ADD DUP1 DUP4 GT PUSH2 0x7A2 JUMPI DUP3 SWAP1 SUB PUSH1 0x1F AND DUP3 ADD SWAP2 JUMPDEST POP POP POP POP POP DUP2 MSTORE PUSH1 0x20 ADD PUSH1 0x1 DUP3 ADD SLOAD DUP2 MSTORE PUSH1 0x20 ADD PUSH1 0x2 DUP3 ADD SLOAD DUP2 MSTORE POP POP SWAP1 POP SWAP1 JUMP JUMPDEST PUSH1 0x7 PUSH1 0x40 MLOAD DUP1 PUSH1 0x60 ADD PUSH1 0x40 MSTORE DUP1 DUP6 DUP2 MSTORE PUSH1 0x20 ADD DUP5 DUP2 MSTORE PUSH1 0x20 ADD DUP4 DUP2 MSTORE POP SWAP1 DUP1 PUSH1 0x1 DUP2 SLOAD ADD DUP1 DUP3 SSTORE DUP1 SWAP2 POP POP PUSH1 0x1 SWAP1 SUB SWAP1 PUSH1 0x0 MSTORE PUSH1 0x20 PUSH1 0x0 KECCAK256 SWAP1 PUSH1 0x3 MUL ADD PUSH1 0x0 SWAP1 SWAP2 SWAP1 SWAP2 SWAP1 SWAP2 POP PUSH1 0x0 DUP3 ADD MLOAD DUP2 PUSH1 0x0 ADD SWAP1 DUP2 PUSH2 0x83C SWAP2 SWAP1 PUSH2 0x101C JUMP JUMPDEST POP PUSH1 0x20 DUP3 ADD MLOAD DUP2 PUSH1 0x1 ADD SSTORE PUSH1 0x40 DUP3 ADD MLOAD DUP2 PUSH1 0x2 ADD SSTORE POP POP POP POP POP JUMP JUMPDEST PUSH1 0x40 MLOAD DUP1 PUSH1 0x60 ADD PUSH1 0x40 MSTORE DUP1 DUP5 DUP2 MSTORE PUSH1 0x20 ADD DUP4 DUP2 MSTORE PUSH1 0x20 ADD DUP3 DUP2 MSTORE POP PUSH1 0x0 DUP1 DUP3 ADD MLOAD DUP2 PUSH1 0x0 ADD SWAP1 DUP2 PUSH2 0x889 SWAP2 SWAP1 PUSH2 0x101C JUMP JUMPDEST POP PUSH1 0x20 DUP3 ADD MLOAD DUP2 PUSH1 0x1 ADD SSTORE PUSH1 0x40 DUP3 ADD MLOAD DUP2 PUSH1 0x2 ADD SSTORE SWAP1 POP POP POP POP POP JUMP JUMPDEST PUSH1 0x40 MLOAD DUP1 PUSH1 0x60 ADD PUSH1 0x40 MSTORE DUP1 PUSH1 0x60 DUP2 MSTORE PUSH1 0x20 ADD PUSH1 0x0 DUP2 MSTORE PUSH1 0x20 ADD PUSH1 0x0 DUP2 MSTORE POP SWAP1 JUMP JUMPDEST PUSH1 0x40 MLOAD DUP1 PUSH1 0x60 ADD PUSH1 0x40 MSTORE DUP1 PUSH1 0x0 DUP2 MSTORE PUSH1 0x20 ADD PUSH1 0x60 DUP2 MSTORE PUSH1 0x20 ADD PUSH1 0x0 PUSH30 0xFFFFFFFFFFFFFFFFFFFFFFFFFFFFFFFFFFFFFFFFFFFFFFFFFFFFFFFFFFFF NOT AND DUP2 MSTORE POP SWAP1 JUMP JUMPDEST PUSH1 0x40 MLOAD DUP1 PUSH1 0x60 ADD PUSH1 0x40 MSTORE DUP1 PUSH1 0x60 DUP2 MSTORE PUSH1 0x20 ADD PUSH1 0x0 DUP2 MSTORE PUSH1 0x20 ADD PUSH1 0x0 DUP2 MSTORE POP SWAP1 JUMP JUMPDEST PUSH1 0x0 PUSH1 0x40 MLOAD SWAP1 POP SWAP1 JUMP JUMPDEST PUSH1 0x0 DUP1 REVERT JUMPDEST PUSH1 0x0 DUP1 REVERT JUMPDEST PUSH1 0x0 DUP2 SWAP1 POP SWAP2 SWAP1 POP JUMP JUMPDEST PUSH2 0x951 DUP2 PUSH2 0x93E JUMP JUMPDEST DUP2 EQ PUSH2 0x95C JUMPI PUSH1 0x0 DUP1 REVERT JUMPDEST POP JUMP JUMPDEST PUSH1 0x0 DUP2 CALLDATALOAD SWAP1 POP PUSH2 0x96E DUP2 PUSH2 0x948 JUMP JUMPDEST SWAP3 SWAP2 POP POP JUMP JUMPDEST PUSH1 0x0 DUP1 REVERT JUMPDEST PUSH1 0x0 DUP1 REVERT JUMPDEST PUSH1 0x0 PUSH1 0x1F NOT PUSH1 0x1F DUP4 ADD AND SWAP1 POP SWAP2 SWAP1 POP JUMP JUMPDEST PUSH32 0x4E487B7100000000000000000000000000000000000000000000000000000000 PUSH1 0x0 MSTORE PUSH1 0x41 PUSH1 0x4 MSTORE PUSH1 0x24 PUSH1 0x0 REVERT JUMPDEST PUSH2 0x9C7 DUP3 PUSH2 0x97E JUMP JUMPDEST DUP2 ADD DUP2 DUP2 LT PUSH8 0xFFFFFFFFFFFFFFFF DUP3 GT OR ISZERO PUSH2 0x9E6 JUMPI PUSH2 0x9E5 PUSH2 0x98F JUMP JUMPDEST JUMPDEST DUP1 PUSH1 0x40 MSTORE POP POP POP JUMP JUMPDEST PUSH1 0x0 PUSH2 0x9F9 PUSH2 0x92A JUMP JUMPDEST SWAP1 POP PUSH2 0xA05 DUP3 DUP3 PUSH2 0x9BE JUMP JUMPDEST SWAP2 SWAP1 POP JUMP JUMPDEST PUSH1 0x0 PUSH8 0xFFFFFFFFFFFFFFFF DUP3 GT ISZERO PUSH2 0xA25 JUMPI PUSH2 0xA24 PUSH2 0x98F JUMP JUMPDEST JUMPDEST PUSH2 0xA2E DUP3 PUSH2 0x97E JUMP JUMPDEST SWAP1 POP PUSH1 0x20 DUP2 ADD SWAP1 POP SWAP2 SWAP1 POP JUMP JUMPDEST DUP3 DUP2 DUP4 CALLDATACOPY PUSH1 0x0 DUP4 DUP4 ADD MSTORE POP POP POP JUMP JUMPDEST PUSH1 0x0 PUSH2 0xA5D PUSH2 0xA58 DUP5 PUSH2 0xA0A JUMP JUMPDEST PUSH2 0x9EF JUMP JUMPDEST SWAP1 POP DUP3 DUP2 MSTORE PUSH1 0x20 DUP2 ADD DUP5 DUP5 DUP5 ADD GT ISZERO PUSH2 0xA79 JUMPI PUSH2 0xA78 PUSH2 0x979 JUMP JUMPDEST JUMPDEST PUSH2 0xA84 DUP5 DUP3 DUP6 PUSH2 0xA3B JUMP JUMPDEST POP SWAP4 SWAP3 POP POP POP JUMP JUMPDEST PUSH1 0x0 DUP3 PUSH1 0x1F DUP4 ADD SLT PUSH2 0xAA1 JUMPI PUSH2 0xAA0 PUSH2 0x974 JUMP JUMPDEST JUMPDEST DUP2 CALLDATALOAD PUSH2 0xAB1 DUP5 DUP3 PUSH1 0x20 DUP7 ADD PUSH2 0xA4A JUMP JUMPDEST SWAP2 POP POP SWAP3 SWAP2 POP POP JUMP JUMPDEST PUSH1 0x0 PUSH32 0xFFFF000000000000000000000000000000000000000000000000000000000000 DUP3 AND SWAP1 POP SWAP2 SWAP1 POP JUMP JUMPDEST PUSH2 0xAEF DUP2 PUSH2 0xABA JUMP JUMPDEST DUP2 EQ PUSH2 0xAFA JUMPI PUSH1 0x0 DUP1 REVERT JUMPDEST POP JUMP JUMPDEST PUSH1 0x0 DUP2 CALLDATALOAD SWAP1 POP PUSH2 0xB0C DUP2 PUSH2 0xAE6 JUMP JUMPDEST SWAP3 SWAP2 POP POP JUMP JUMPDEST PUSH1 0x0 DUP1 PUSH1 0x0 PUSH1 0x60 DUP5 DUP7 SUB SLT ISZERO PUSH2 0xB2B JUMPI PUSH2 0xB2A PUSH2 0x934 JUMP JUMPDEST JUMPDEST PUSH1 0x0 PUSH2 0xB39 DUP7 DUP3 DUP8 ADD PUSH2 0x95F JUMP JUMPDEST SWAP4 POP POP PUSH1 0x20 DUP5 ADD CALLDATALOAD PUSH8 0xFFFFFFFFFFFFFFFF DUP2 GT ISZERO PUSH2 0xB5A JUMPI PUSH2 0xB59 PUSH2 0x939 JUMP JUMPDEST JUMPDEST PUSH2 0xB66 DUP7 DUP3 DUP8 ADD PUSH2 0xA8C JUMP JUMPDEST SWAP3 POP POP PUSH1 0x40 PUSH2 0xB77 DUP7 DUP3 DUP8 ADD PUSH2 0xAFD JUMP JUMPDEST SWAP2 POP POP SWAP3 POP SWAP3 POP SWAP3 JUMP JUMPDEST PUSH1 0x0 DUP1 PUSH1 0x0 PUSH1 0x60 DUP5 DUP7 SUB SLT ISZERO PUSH2 0xB9A JUMPI PUSH2 0xB99 PUSH2 0x934 JUMP JUMPDEST JUMPDEST PUSH1 0x0 DUP5 ADD CALLDATALOAD PUSH8 0xFFFFFFFFFFFFFFFF DUP2 GT ISZERO PUSH2 0xBB8 JUMPI PUSH2 0xBB7 PUSH2 0x939 JUMP JUMPDEST JUMPDEST PUSH2 0xBC4 DUP7 DUP3 DUP8 ADD PUSH2 0xA8C JUMP JUMPDEST SWAP4 POP POP PUSH1 0x20 PUSH2 0xBD5 DUP7 DUP3 DUP8 ADD PUSH2 0x95F JUMP JUMPDEST SWAP3 POP POP PUSH1 0x40 PUSH2 0xBE6 DUP7 DUP3 DUP8 ADD PUSH2 0x95F JUMP JUMPDEST SWAP2 POP POP SWAP3 POP SWAP3 POP SWAP3 JUMP JUMPDEST PUSH1 0x0 DUP2 MLOAD SWAP1 POP SWAP2 SWAP1 POP JUMP JUMPDEST PUSH1 0x0 DUP3 DUP3 MSTORE PUSH1 0x20 DUP3 ADD SWAP1 POP SWAP3 SWAP2 POP POP JUMP JUMPDEST PUSH1 0x0 JUMPDEST DUP4 DUP2 LT ISZERO PUSH2 0xC2A JUMPI DUP1 DUP3 ADD MLOAD DUP2 DUP5 ADD MSTORE PUSH1 0x20 DUP2 ADD SWAP1 POP PUSH2 0xC0F JUMP JUMPDEST PUSH1 0x0 DUP5 DUP5 ADD MSTORE POP POP POP POP JUMP JUMPDEST PUSH1 0x0 PUSH2 0xC41 DUP3 PUSH2 0xBF0 JUMP JUMPDEST PUSH2 0xC4B DUP2 DUP6 PUSH2 0xBFB JUMP JUMPDEST SWAP4 POP PUSH2 0xC5B DUP2 DUP6 PUSH1 0x20 DUP7 ADD PUSH2 0xC0C JUMP JUMPDEST PUSH2 0xC64 DUP2 PUSH2 0x97E JUMP JUMPDEST DUP5 ADD SWAP2 POP POP SWAP3 SWAP2 POP POP JUMP JUMPDEST PUSH2 0xC78 DUP2 PUSH2 0x93E JUMP JUMPDEST DUP3 MSTORE POP POP JUMP JUMPDEST PUSH1 0x0 PUSH1 0x60 DUP4 ADD PUSH1 0x0 DUP4 ADD MLOAD DUP5 DUP3 SUB PUSH1 0x0 DUP7 ADD MSTORE PUSH2 0xC9B DUP3 DUP3 PUSH2 0xC36 JUMP JUMPDEST SWAP2 POP POP PUSH1 0x20 DUP4 ADD MLOAD PUSH2 0xCB0 PUSH1 0x20 DUP7 ADD DUP3 PUSH2 0xC6F JUMP JUMPDEST POP PUSH1 0x40 DUP4 ADD MLOAD PUSH2 0xCC3 PUSH1 0x40 DUP7 ADD DUP3 PUSH2 0xC6F JUMP JUMPDEST POP DUP1 SWAP2 POP POP SWAP3 SWAP2 POP POP JUMP JUMPDEST PUSH1 0x0 PUSH1 0x20 DUP3 ADD SWAP1 POP DUP2 DUP2 SUB PUSH1 0x0 DUP4 ADD MSTORE PUSH2 0xCE8 DUP2 DUP5 PUSH2 0xC7E JUMP JUMPDEST SWAP1 POP SWAP3 SWAP2 POP POP JUMP JUMPDEST PUSH1 0x0 PUSH1 0x20 DUP3 DUP5 SUB SLT ISZERO PUSH2 0xD06 JUMPI PUSH2 0xD05 PUSH2 0x934 JUMP JUMPDEST JUMPDEST PUSH1 0x0 PUSH2 0xD14 DUP5 DUP3 DUP6 ADD PUSH2 0x95F JUMP JUMPDEST SWAP2 POP POP SWAP3 SWAP2 POP POP JUMP JUMPDEST PUSH2 0xD26 DUP2 PUSH2 0xABA JUMP JUMPDEST DUP3 MSTORE POP POP JUMP JUMPDEST PUSH1 0x0 PUSH1 0x60 DUP4 ADD PUSH1 0x0 DUP4 ADD MLOAD PUSH2 0xD44 PUSH1 0x0 DUP7 ADD DUP3 PUSH2 0xC6F JUMP JUMPDEST POP PUSH1 0x20 DUP4 ADD MLOAD DUP5 DUP3 SUB PUSH1 0x20 DUP7 ADD MSTORE PUSH2 0xD5C DUP3 DUP3 PUSH2 0xC36 JUMP JUMPDEST SWAP2 POP POP PUSH1 0x40 DUP4 ADD MLOAD PUSH2 0xD71 PUSH1 0x40 DUP7 ADD DUP3 PUSH2 0xD1D JUMP JUMPDEST POP DUP1 SWAP2 POP POP SWAP3 SWAP2 POP POP JUMP JUMPDEST PUSH1 0x0 PUSH1 0x20 DUP3 ADD SWAP1 POP DUP2 DUP2 SUB PUSH1 0x0 DUP4 ADD MSTORE PUSH2 0xD96 DUP2 DUP5 PUSH2 0xD2C JUMP JUMPDEST SWAP1 POP SWAP3 SWAP2 POP POP JUMP JUMPDEST PUSH1 0x0 PUSH1 0x60 DUP4 ADD PUSH1 0x0 DUP4 ADD MLOAD DUP5 DUP3 SUB PUSH1 0x0 DUP7 ADD MSTORE PUSH2 0xDBB DUP3 DUP3 PUSH2 0xC36 JUMP JUMPDEST SWAP2 POP POP PUSH1 0x20 DUP4 ADD MLOAD PUSH2 0xDD0 PUSH1 0x20 DUP7 ADD DUP3 PUSH2 0xC6F JUMP JUMPDEST POP PUSH1 0x40 DUP4 ADD MLOAD PUSH2 0xDE3 PUSH1 0x40 DUP7 ADD DUP3 PUSH2 0xC6F JUMP JUMPDEST POP DUP1 SWAP2 POP POP SWAP3 SWAP2 POP POP JUMP JUMPDEST PUSH1 0x0 PUSH1 0x20 DUP3 ADD SWAP1 POP DUP2 DUP2 SUB PUSH1 0x0 DUP4 ADD MSTORE PUSH2 0xE08 DUP2 DUP5 PUSH2 0xD9E JUMP JUMPDEST SWAP1 POP SWAP3 SWAP2 POP POP JUMP JUMPDEST PUSH32 0x4E487B7100000000000000000000000000000000000000000000000000000000 PUSH1 0x0 MSTORE PUSH1 0x22 PUSH1 0x4 MSTORE PUSH1 0x24 PUSH1 0x0 REVERT JUMPDEST PUSH1 0x0 PUSH1 0x2 DUP3 DIV SWAP1 POP PUSH1 0x1 DUP3 AND DUP1 PUSH2 0xE57 JUMPI PUSH1 0x7F DUP3 AND SWAP2 POP JUMPDEST PUSH1 0x20 DUP3 LT DUP2 SUB PUSH2 0xE6A JUMPI PUSH2 0xE69 PUSH2 0xE10 JUMP JUMPDEST JUMPDEST POP SWAP2 SWAP1 POP JUMP JUMPDEST PUSH1 0x0 DUP2 SWAP1 POP DUP2 PUSH1 0x0 MSTORE PUSH1 0x20 PUSH1 0x0 KECCAK256 SWAP1 POP SWAP2 SWAP1 POP JUMP JUMPDEST PUSH1 0x0 PUSH1 0x20 PUSH1 0x1F DUP4 ADD DIV SWAP1 POP SWAP2 SWAP1 POP JUMP JUMPDEST PUSH1 0x0 DUP3 DUP3 SHL SWAP1 POP SWAP3 SWAP2 POP POP JUMP JUMPDEST PUSH1 0x0 PUSH1 0x8 DUP4 MUL PUSH2 0xED2 PUSH32 0xFFFFFFFFFFFFFFFFFFFFFFFFFFFFFFFFFFFFFFFFFFFFFFFFFFFFFFFFFFFFFFFF DUP3 PUSH2 0xE95 JUMP JUMPDEST PUSH2 0xEDC DUP7 DUP4 PUSH2 0xE95 JUMP JUMPDEST SWAP6 POP DUP1 NOT DUP5 AND SWAP4 POP DUP1 DUP7 AND DUP5 OR SWAP3 POP POP POP SWAP4 SWAP3 POP POP POP JUMP JUMPDEST PUSH1 0x0 DUP2 SWAP1 POP SWAP2 SWAP1 POP JUMP JUMPDEST PUSH1 0x0 PUSH2 0xF19 PUSH2 0xF14 PUSH2 0xF0F DUP5 PUSH2 0x93E JUMP JUMPDEST PUSH2 0xEF4 JUMP JUMPDEST PUSH2 0x93E JUMP JUMPDEST SWAP1 POP SWAP2 SWAP1 POP JUMP JUMPDEST PUSH1 0x0 DUP2 SWAP1 POP SWAP2 SWAP1 POP JUMP JUMPDEST PUSH2 0xF33 DUP4 PUSH2 0xEFE JUMP JUMPDEST PUSH2 0xF47 PUSH2 0xF3F DUP3 PUSH2 0xF20 JUMP JUMPDEST DUP5 DUP5 SLOAD PUSH2 0xEA2 JUMP JUMPDEST DUP3 SSTORE POP POP POP POP JUMP JUMPDEST PUSH1 0x0 SWAP1 JUMP JUMPDEST PUSH2 0xF5C PUSH2 0xF4F JUMP JUMPDEST PUSH2 0xF67 DUP2 DUP5 DUP5 PUSH2 0xF2A JUMP JUMPDEST POP POP POP JUMP JUMPDEST JUMPDEST DUP2 DUP2 LT ISZERO PUSH2 0xF8B JUMPI PUSH2 0xF80 PUSH1 0x0 DUP3 PUSH2 0xF54 JUMP JUMPDEST PUSH1 0x1 DUP2 ADD SWAP1 POP PUSH2 0xF6D JUMP JUMPDEST POP POP JUMP JUMPDEST PUSH1 0x1F DUP3 GT ISZERO PUSH2 0xFD0 JUMPI PUSH2 0xFA1 DUP2 PUSH2 0xE70 JUMP JUMPDEST PUSH2 0xFAA DUP5 PUSH2 0xE85 JUMP JUMPDEST DUP2 ADD PUSH1 0x20 DUP6 LT ISZERO PUSH2 0xFB9 JUMPI DUP2 SWAP1 POP JUMPDEST PUSH2 0xFCD PUSH2 0xFC5 DUP6 PUSH2 0xE85 JUMP JUMPDEST DUP4 ADD DUP3 PUSH2 0xF6C JUMP JUMPDEST POP POP JUMPDEST POP POP POP JUMP JUMPDEST PUSH1 0x0 DUP3 DUP3 SHR SWAP1 POP SWAP3 SWAP2 POP POP JUMP JUMPDEST PUSH1 0x0 PUSH2 0xFF3 PUSH1 0x0 NOT DUP5 PUSH1 0x8 MUL PUSH2 0xFD5 JUMP JUMPDEST NOT DUP1 DUP4 AND SWAP2 POP POP SWAP3 SWAP2 POP POP JUMP JUMPDEST PUSH1 0x0 PUSH2 0x100C DUP4 DUP4 PUSH2 0xFE2 JUMP JUMPDEST SWAP2 POP DUP3 PUSH1 0x2 MUL DUP3 OR SWAP1 POP SWAP3 SWAP2 POP POP JUMP JUMPDEST PUSH2 0x1025 DUP3 PUSH2 0xBF0 JUMP JUMPDEST PUSH8 0xFFFFFFFFFFFFFFFF DUP2 GT ISZERO PUSH2 0x103E JUMPI PUSH2 0x103D PUSH2 0x98F JUMP JUMPDEST JUMPDEST PUSH2 0x1048 DUP3 SLOAD PUSH2 0xE3F JUMP JUMPDEST PUSH2 0x1053 DUP3 DUP3 DUP6 PUSH2 0xF8F JUMP JUMPDEST PUSH1 0x0 PUSH1 0x20 SWAP1 POP PUSH1 0x1F DUP4 GT PUSH1 0x1 DUP2 EQ PUSH2 0x1086 JUMPI PUSH1 0x0 DUP5 ISZERO PUSH2 0x1074 JUMPI DUP3 DUP8 ADD MLOAD SWAP1 POP JUMPDEST PUSH2 0x107E DUP6 DUP3 PUSH2 0x1000 JUMP JUMPDEST DUP7 SSTORE POP PUSH2 0x10E6 JUMP JUMPDEST PUSH1 0x1F NOT DUP5 AND PUSH2 0x1094 DUP7 PUSH2 0xE70 JUMP JUMPDEST PUSH1 0x0 JUMPDEST DUP3 DUP2 LT ISZERO PUSH2 0x10BC JUMPI DUP5 DUP10 ADD MLOAD DUP3 SSTORE PUSH1 0x1 DUP3 ADD SWAP2 POP PUSH1 0x20 DUP6 ADD SWAP5 POP PUSH1 0x20 DUP2 ADD SWAP1 POP PUSH2 0x1097 JUMP JUMPDEST DUP7 DUP4 LT ISZERO PUSH2 0x10D9 JUMPI DUP5 DUP10 ADD MLOAD PUSH2 0x10D5 PUSH1 0x1F DUP10 AND DUP3 PUSH2 0xFE2 JUMP JUMPDEST DUP4 SSTORE POP JUMPDEST PUSH1 0x1 PUSH1 0x2 DUP9 MUL ADD DUP9 SSTORE POP POP POP JUMPDEST POP POP POP POP POP POP JUMP JUMPDEST PUSH32 0x4E487B7100000000000000000000000000000000000000000000000000000000 PUSH1 0x0 MSTORE PUSH1 0x32 PUSH1 0x4 MSTORE PUSH1 0x24 PUSH1 0x0 REVERT INVALID LOG2 PUSH5 0x6970667358 0x22 SLT KECCAK256 0x2C PUSH24 0x26882FC8FD2E81BE768C0399E3C3810F8E976DA54C42029F MSTORE8 0xA8 SLT LOG1 JUMP 0xEC PUSH5 0x736F6C6343 STOP ADDMOD SLT STOP CALLER "
				},
				"gasEstimates": {
					"creation": {
						"codeDepositCost": "887000",
						"executionCost": "922",
						"totalCost": "887922"
					},
					"external": {
						"getC()": "infinite",
						"getMembers(uint256)": "infinite",
						"getS()": "infinite",
						"pushClass(string,uint256,uint256)": "infinite",
						"pushD(uint256,string,bytes2)": "infinite",
						"pushMember(uint256,string,bytes2)": "infinite",
						"pushStudent(string,uint256,uint256)": "infinite",
						"setC(string,uint256,uint256)": "infinite",
						"setDD(uint256,string,bytes2)": "infinite",
						"setM(uint256,string,bytes2)": "infinite",
						"setS(string,uint256,uint256)": "infinite"
					}
				},
				"methodIdentifiers": {
					"getC()": "a2375d1e",
					"getMembers(uint256)": "c477ecab",
					"getS()": "e93314ab",
					"pushClass(string,uint256,uint256)": "edeb21cf",
					"pushD(uint256,string,bytes2)": "cd914def",
					"pushMember(uint256,string,bytes2)": "49d3b319",
					"pushStudent(string,uint256,uint256)": "562ca543",
					"setC(string,uint256,uint256)": "93dbeaa3",
					"setDD(uint256,string,bytes2)": "1908791c",
					"setM(uint256,string,bytes2)": "719a0017",
					"setS(string,uint256,uint256)": "fb49cfbc"
				}
			},
			"storageLayout": {
				"storage": [
					{
						"astId": 18,
						"contract": "BCS/230508_01_Struct_Practice.sol:structPractice",
						"label": "s",
						"offset": 0,
						"slot": "0",
						"type": "t_struct(student)8_storage"
					},
					{
						"astId": 21,
						"contract": "BCS/230508_01_Struct_Practice.sol:structPractice",
						"label": "c",
						"offset": 0,
						"slot": "3",
						"type": "t_struct(class)15_storage"
					},
					{
						"astId": 79,
						"contract": "BCS/230508_01_Struct_Practice.sol:structPractice",
						"label": "students",
						"offset": 0,
						"slot": "6",
						"type": "t_array(t_struct(student)8_storage)dyn_storage"
					},
					{
						"astId": 83,
						"contract": "BCS/230508_01_Struct_Practice.sol:structPractice",
						"label": "classs",
						"offset": 0,
						"slot": "7",
						"type": "t_array(t_struct(class)15_storage)dyn_storage"
					},
					{
						"astId": 133,
						"contract": "BCS/230508_01_Struct_Practice.sol:structPractice",
						"label": "dd",
						"offset": 0,
						"slot": "8",
						"type": "t_struct(D)130_storage"
					},
					{
						"astId": 155,
						"contract": "BCS/230508_01_Struct_Practice.sol:structPractice",
						"label": "Ds",
						"offset": 0,
						"slot": "11",
						"type": "t_array(t_struct(D)130_storage)dyn_storage"
					},
					{
						"astId": 185,
						"contract": "BCS/230508_01_Struct_Practice.sol:structPractice",
						"label": "Michael",
						"offset": 0,
						"slot": "12",
						"type": "t_struct(member)182_storage"
					},
					{
						"astId": 207,
						"contract": "BCS/230508_01_Struct_Practice.sol:structPractice",
						"label": "members",
						"offset": 0,
						"slot": "15",
						"type": "t_array(t_struct(member)182_storage)dyn_storage"
					}
				],
				"types": {
					"t_array(t_struct(D)130_storage)dyn_storage": {
						"base": "t_struct(D)130_storage",
						"encoding": "dynamic_array",
						"label": "struct structPractice.D[]",
						"numberOfBytes": "32"
					},
					"t_array(t_struct(class)15_storage)dyn_storage": {
						"base": "t_struct(class)15_storage",
						"encoding": "dynamic_array",
						"label": "struct structPractice.class[]",
						"numberOfBytes": "32"
					},
					"t_array(t_struct(member)182_storage)dyn_storage": {
						"base": "t_struct(member)182_storage",
						"encoding": "dynamic_array",
						"label": "struct structPractice.member[]",
						"numberOfBytes": "32"
					},
					"t_array(t_struct(student)8_storage)dyn_storage": {
						"base": "t_struct(student)8_storage",
						"encoding": "dynamic_array",
						"label": "struct structPractice.student[]",
						"numberOfBytes": "32"
					},
					"t_bytes2": {
						"encoding": "inplace",
						"label": "bytes2",
						"numberOfBytes": "2"
					},
					"t_string_storage": {
						"encoding": "bytes",
						"label": "string",
						"numberOfBytes": "32"
					},
					"t_struct(D)130_storage": {
						"encoding": "inplace",
						"label": "struct structPractice.D",
						"members": [
							{
								"astId": 125,
								"contract": "BCS/230508_01_Struct_Practice.sol:structPractice",
								"label": "a",
								"offset": 0,
								"slot": "0",
								"type": "t_uint256"
							},
							{
								"astId": 127,
								"contract": "BCS/230508_01_Struct_Practice.sol:structPractice",
								"label": "b",
								"offset": 0,
								"slot": "1",
								"type": "t_string_storage"
							},
							{
								"astId": 129,
								"contract": "BCS/230508_01_Struct_Practice.sol:structPractice",
								"label": "c",
								"offset": 0,
								"slot": "2",
								"type": "t_bytes2"
							}
						],
						"numberOfBytes": "96"
					},
					"t_struct(class)15_storage": {
						"encoding": "inplace",
						"label": "struct structPractice.class",
						"members": [
							{
								"astId": 10,
								"contract": "BCS/230508_01_Struct_Practice.sol:structPractice",
								"label": "subject",
								"offset": 0,
								"slot": "0",
								"type": "t_string_storage"
							},
							{
								"astId": 12,
								"contract": "BCS/230508_01_Struct_Practice.sol:structPractice",
								"label": "number",
								"offset": 0,
								"slot": "1",
								"type": "t_uint256"
							},
							{
								"astId": 14,
								"contract": "BCS/230508_01_Struct_Practice.sol:structPractice",
								"label": "date",
								"offset": 0,
								"slot": "2",
								"type": "t_uint256"
							}
						],
						"numberOfBytes": "96"
					},
					"t_struct(member)182_storage": {
						"encoding": "inplace",
						"label": "struct structPractice.member",
						"members": [
							{
								"astId": 177,
								"contract": "BCS/230508_01_Struct_Practice.sol:structPractice",
								"label": "number",
								"offset": 0,
								"slot": "0",
								"type": "t_uint256"
							},
							{
								"astId": 179,
								"contract": "BCS/230508_01_Struct_Practice.sol:structPractice",
								"label": "name",
								"offset": 0,
								"slot": "1",
								"type": "t_string_storage"
							},
							{
								"astId": 181,
								"contract": "BCS/230508_01_Struct_Practice.sol:structPractice",
								"label": "password",
								"offset": 0,
								"slot": "2",
								"type": "t_bytes2"
							}
						],
						"numberOfBytes": "96"
					},
					"t_struct(student)8_storage": {
						"encoding": "inplace",
						"label": "struct structPractice.student",
						"members": [
							{
								"astId": 3,
								"contract": "BCS/230508_01_Struct_Practice.sol:structPractice",
								"label": "name",
								"offset": 0,
								"slot": "0",
								"type": "t_string_storage"
							},
							{
								"astId": 5,
								"contract": "BCS/230508_01_Struct_Practice.sol:structPractice",
								"label": "number",
								"offset": 0,
								"slot": "1",
								"type": "t_uint256"
							},
							{
								"astId": 7,
								"contract": "BCS/230508_01_Struct_Practice.sol:structPractice",
								"label": "birth",
								"offset": 0,
								"slot": "2",
								"type": "t_uint256"
							}
						],
						"numberOfBytes": "96"
					},
					"t_uint256": {
						"encoding": "inplace",
						"label": "uint256",
						"numberOfBytes": "32"
					}
				}
			},
			"userdoc": {
				"kind": "user",
				"methods": {},
				"version": 1
			}
		}
	}
}